{
  "contractName": "AladdinContract",
  "abi": [
    {
      "inputs": [
        {
          "internalType": "address",
          "name": "_usdtAddress",
          "type": "address"
        }
      ],
      "stateMutability": "nonpayable",
      "type": "constructor"
    },
    {
      "inputs": [
        {
          "internalType": "address",
          "name": "owner",
          "type": "address"
        }
      ],
      "name": "OwnableInvalidOwner",
      "type": "error"
    },
    {
      "inputs": [
        {
          "internalType": "address",
          "name": "account",
          "type": "address"
        }
      ],
      "name": "OwnableUnauthorizedAccount",
      "type": "error"
    },
    {
      "anonymous": false,
      "inputs": [
        {
          "indexed": true,
          "internalType": "address",
          "name": "previousOwner",
          "type": "address"
        },
        {
          "indexed": true,
          "internalType": "address",
          "name": "newOwner",
          "type": "address"
        }
      ],
      "name": "OwnershipTransferred",
      "type": "event"
    },
    {
      "inputs": [],
      "name": "owner",
      "outputs": [
        {
          "internalType": "address",
          "name": "",
          "type": "address"
        }
      ],
      "stateMutability": "view",
      "type": "function",
      "constant": true
    },
    {
      "inputs": [
        {
          "internalType": "address",
          "name": "",
          "type": "address"
        }
      ],
      "name": "record",
      "outputs": [
        {
          "internalType": "uint256",
          "name": "",
          "type": "uint256"
        }
      ],
      "stateMutability": "view",
      "type": "function",
      "constant": true
    },
    {
      "inputs": [],
      "name": "renounceOwnership",
      "outputs": [],
      "stateMutability": "nonpayable",
      "type": "function"
    },
    {
      "inputs": [],
      "name": "totalAmount",
      "outputs": [
        {
          "internalType": "uint256",
          "name": "",
          "type": "uint256"
        }
      ],
      "stateMutability": "view",
      "type": "function",
      "constant": true
    },
    {
      "inputs": [
        {
          "internalType": "address",
          "name": "newOwner",
          "type": "address"
        }
      ],
      "name": "transferOwnership",
      "outputs": [],
      "stateMutability": "nonpayable",
      "type": "function"
    },
    {
      "inputs": [],
      "name": "usdtToken",
      "outputs": [
        {
          "internalType": "contract IERC20",
          "name": "",
          "type": "address"
        }
      ],
      "stateMutability": "view",
      "type": "function",
      "constant": true
    },
    {
      "inputs": [
        {
          "internalType": "uint256",
          "name": "_amount",
          "type": "uint256"
        }
      ],
      "name": "deposit",
      "outputs": [],
      "stateMutability": "nonpayable",
      "type": "function"
    },
    {
      "inputs": [
        {
          "internalType": "uint256",
          "name": "_amount",
          "type": "uint256"
        }
      ],
      "name": "withdraw",
      "outputs": [],
      "stateMutability": "nonpayable",
      "type": "function"
    },
    {
      "inputs": [
        {
          "internalType": "address",
          "name": "_user",
          "type": "address"
        }
      ],
      "name": "getUserDeposit",
      "outputs": [
        {
          "internalType": "uint256",
          "name": "",
          "type": "uint256"
        }
      ],
      "stateMutability": "view",
      "type": "function",
      "constant": true
    },
    {
      "inputs": [],
      "name": "getTotalDeposit",
      "outputs": [
        {
          "internalType": "uint256",
          "name": "",
          "type": "uint256"
        }
      ],
      "stateMutability": "view",
      "type": "function",
      "constant": true
    },
    {
      "inputs": [],
      "name": "withdrawAll",
      "outputs": [],
      "stateMutability": "nonpayable",
      "type": "function"
    },
    {
      "inputs": [
        {
          "internalType": "address",
          "name": "_to",
          "type": "address"
        },
        {
          "internalType": "uint256",
          "name": "_amount",
          "type": "uint256"
        }
      ],
      "name": "sendToAddress",
      "outputs": [],
      "stateMutability": "nonpayable",
      "type": "function"
    }
  ],
  "bytecode": "0x60806040523480156200001157600080fd5b50604051620014423803806200144283398181016040528101906200003791906200023e565b33600073ffffffffffffffffffffffffffffffffffffffff168173ffffffffffffffffffffffffffffffffffffffff1603620000ad5760006040517f1e4fbdf7000000000000000000000000000000000000000000000000000000008152600401620000a4919062000281565b60405180910390fd5b620000c78162000110640100000000026401000000009004565b5080600360006101000a81548173ffffffffffffffffffffffffffffffffffffffff021916908373ffffffffffffffffffffffffffffffffffffffff160217905550506200029e565b60008060009054906101000a900473ffffffffffffffffffffffffffffffffffffffff169050816000806101000a81548173ffffffffffffffffffffffffffffffffffffffff021916908373ffffffffffffffffffffffffffffffffffffffff1602179055508173ffffffffffffffffffffffffffffffffffffffff168173ffffffffffffffffffffffffffffffffffffffff167f8be0079c531659141344cd1fd0a4f28419497f9722a3daafe3b4186f6b6457e060405160405180910390a35050565b600080fd5b600073ffffffffffffffffffffffffffffffffffffffff82169050919050565b60006200020682620001d9565b9050919050565b6200021881620001f9565b81146200022457600080fd5b50565b60008151905062000238816200020d565b92915050565b600060208284031215620002575762000256620001d4565b5b6000620002678482850162000227565b91505092915050565b6200027b81620001f9565b82525050565b600060208201905062000298600083018462000270565b92915050565b61119480620002ae6000396000f3fe608060405234801561001057600080fd5b50600436106100d1576000357c0100000000000000000000000000000000000000000000000000000000900480638da5cb5b1161008e5780638da5cb5b14610170578063a98ad46c1461018e578063b6b55f25146101ac578063c022215c146101c8578063c084b10b146101e6578063f2fde38b14610216576100d1565b80631a39d8ef146100d65780632e1a7d4d146100f45780633465d6d5146101105780633debd2d814610140578063715018a61461015c578063853828b614610166575b600080fd5b6100de610232565b6040516100eb9190610c5a565b60405180910390f35b61010e60048036038101906101099190610ca6565b610238565b005b61012a60048036038101906101259190610d31565b6103e9565b6040516101379190610c5a565b60405180910390f35b61015a60048036038101906101559190610d5e565b610401565b005b6101646105b3565b005b61016e6105c7565b005b61017861069f565b6040516101859190610dad565b60405180910390f35b6101966106c8565b6040516101a39190610e27565b60405180910390f35b6101c660048036038101906101c19190610ca6565b6106ee565b005b6101d0610a15565b6040516101dd9190610c5a565b60405180910390f35b61020060048036038101906101fb9190610d31565b610a1f565b60405161020d9190610c5a565b60405180910390f35b610230600480360381019061022b9190610d31565b610a68565b005b60015481565b80600260003373ffffffffffffffffffffffffffffffffffffffff1673ffffffffffffffffffffffffffffffffffffffff1681526020019081526020016000205410156102ba576040517f08c379a00000000000000000000000000000000000000000000000000000000081526004016102b190610e9f565b60405180910390fd5b600360009054906101000a900473ffffffffffffffffffffffffffffffffffffffff1673ffffffffffffffffffffffffffffffffffffffff1663a9059cbb33836040518363ffffffff167c0100000000000000000000000000000000000000000000000000000000028152600401610333929190610ebf565b6020604051808303816000875af1158015610352573d6000803e3d6000fd5b505050506040513d601f19601f820116820180604052508101906103769190610f20565b5080600260003373ffffffffffffffffffffffffffffffffffffffff1673ffffffffffffffffffffffffffffffffffffffff16815260200190815260200160002060008282546103c69190610f7c565b9250508190555080600160008282546103df9190610f7c565b9250508190555050565b60026020528060005260406000206000915090505481565b80600260003373ffffffffffffffffffffffffffffffffffffffff1673ffffffffffffffffffffffffffffffffffffffff168152602001908152602001600020541015610483576040517f08c379a000000000000000000000000000000000000000000000000000000000815260040161047a90610e9f565b60405180910390fd5b600360009054906101000a900473ffffffffffffffffffffffffffffffffffffffff1673ffffffffffffffffffffffffffffffffffffffff1663a9059cbb83836040518363ffffffff167c01000000000000000000000000000000000000000000000000000000000281526004016104fc929190610ebf565b6020604051808303816000875af115801561051b573d6000803e3d6000fd5b505050506040513d601f19601f8201168201806040525081019061053f9190610f20565b5080600260003373ffffffffffffffffffffffffffffffffffffffff1673ffffffffffffffffffffffffffffffffffffffff168152602001908152602001600020600082825461058f9190610f7c565b9250508190555080600160008282546105a89190610f7c565b925050819055505050565b6105bb610aee565b6105c56000610b75565b565b6105cf610aee565b600360009054906101000a900473ffffffffffffffffffffffffffffffffffffffff1673ffffffffffffffffffffffffffffffffffffffff1663a9059cbb61061561069f565b6001546040518363ffffffff167c0100000000000000000000000000000000000000000000000000000000028152600401610651929190610ebf565b6020604051808303816000875af1158015610670573d6000803e3d6000fd5b505050506040513d601f19601f820116820180604052508101906106949190610f20565b506000600181905550565b60008060009054906101000a900473ffffffffffffffffffffffffffffffffffffffff16905090565b600360009054906101000a900473ffffffffffffffffffffffffffffffffffffffff1681565b80600360009054906101000a900473ffffffffffffffffffffffffffffffffffffffff1673ffffffffffffffffffffffffffffffffffffffff166370a08231336040518263ffffffff167c01000000000000000000000000000000000000000000000000000000000281526004016107669190610dad565b602060405180830381865afa158015610783573d6000803e3d6000fd5b505050506040513d601f19601f820116820180604052508101906107a79190610fc5565b10156107e8576040517f08c379a00000000000000000000000000000000000000000000000000000000081526004016107df9061103e565b60405180910390fd5b80600360009054906101000a900473ffffffffffffffffffffffffffffffffffffffff1673ffffffffffffffffffffffffffffffffffffffff1663dd62ed3e33306040518363ffffffff167c010000000000000000000000000000000000000000000000000000000002815260040161086292919061105e565b602060405180830381865afa15801561087f573d6000803e3d6000fd5b505050506040513d601f19601f820116820180604052508101906108a39190610fc5565b10156108e4576040517f08c379a00000000000000000000000000000000000000000000000000000000081526004016108db906110d3565b60405180910390fd5b600360009054906101000a900473ffffffffffffffffffffffffffffffffffffffff1673ffffffffffffffffffffffffffffffffffffffff166323b872dd3330846040518463ffffffff167c010000000000000000000000000000000000000000000000000000000002815260040161095f939291906110f3565b6020604051808303816000875af115801561097e573d6000803e3d6000fd5b505050506040513d601f19601f820116820180604052508101906109a29190610f20565b5080600260003373ffffffffffffffffffffffffffffffffffffffff1673ffffffffffffffffffffffffffffffffffffffff16815260200190815260200160002060008282546109f2919061112a565b925050819055508060016000828254610a0b919061112a565b9250508190555050565b6000600154905090565b6000600260008373ffffffffffffffffffffffffffffffffffffffff1673ffffffffffffffffffffffffffffffffffffffff168152602001908152602001600020549050919050565b610a70610aee565b600073ffffffffffffffffffffffffffffffffffffffff168173ffffffffffffffffffffffffffffffffffffffff1603610ae25760006040517f1e4fbdf7000000000000000000000000000000000000000000000000000000008152600401610ad99190610dad565b60405180910390fd5b610aeb81610b75565b50565b610af6610c39565b73ffffffffffffffffffffffffffffffffffffffff16610b1461069f565b73ffffffffffffffffffffffffffffffffffffffff1614610b7357610b37610c39565b6040517f118cdaa7000000000000000000000000000000000000000000000000000000008152600401610b6a9190610dad565b60405180910390fd5b565b60008060009054906101000a900473ffffffffffffffffffffffffffffffffffffffff169050816000806101000a81548173ffffffffffffffffffffffffffffffffffffffff021916908373ffffffffffffffffffffffffffffffffffffffff1602179055508173ffffffffffffffffffffffffffffffffffffffff168173ffffffffffffffffffffffffffffffffffffffff167f8be0079c531659141344cd1fd0a4f28419497f9722a3daafe3b4186f6b6457e060405160405180910390a35050565b600033905090565b6000819050919050565b610c5481610c41565b82525050565b6000602082019050610c6f6000830184610c4b565b92915050565b600080fd5b610c8381610c41565b8114610c8e57600080fd5b50565b600081359050610ca081610c7a565b92915050565b600060208284031215610cbc57610cbb610c75565b5b6000610cca84828501610c91565b91505092915050565b600073ffffffffffffffffffffffffffffffffffffffff82169050919050565b6000610cfe82610cd3565b9050919050565b610d0e81610cf3565b8114610d1957600080fd5b50565b600081359050610d2b81610d05565b92915050565b600060208284031215610d4757610d46610c75565b5b6000610d5584828501610d1c565b91505092915050565b60008060408385031215610d7557610d74610c75565b5b6000610d8385828601610d1c565b9250506020610d9485828601610c91565b9150509250929050565b610da781610cf3565b82525050565b6000602082019050610dc26000830184610d9e565b92915050565b6000819050919050565b6000610ded610de8610de384610cd3565b610dc8565b610cd3565b9050919050565b6000610dff82610dd2565b9050919050565b6000610e1182610df4565b9050919050565b610e2181610e06565b82525050565b6000602082019050610e3c6000830184610e18565b92915050565b600082825260208201905092915050565b7f696e73756666696369656e742062616c616e6365000000000000000000000000600082015250565b6000610e89601483610e42565b9150610e9482610e53565b602082019050919050565b60006020820190508181036000830152610eb881610e7c565b9050919050565b6000604082019050610ed46000830185610d9e565b610ee16020830184610c4b565b9392505050565b60008115159050919050565b610efd81610ee8565b8114610f0857600080fd5b50565b600081519050610f1a81610ef4565b92915050565b600060208284031215610f3657610f35610c75565b5b6000610f4484828501610f0b565b91505092915050565b7f4e487b7100000000000000000000000000000000000000000000000000000000600052601160045260246000fd5b6000610f8782610c41565b9150610f9283610c41565b9250828203905081811115610faa57610fa9610f4d565b5b92915050565b600081519050610fbf81610c7a565b92915050565b600060208284031215610fdb57610fda610c75565b5b6000610fe984828501610fb0565b91505092915050565b7f496e73756666696369656e7420555344542062616c616e636500000000000000600082015250565b6000611028601983610e42565b915061103382610ff2565b602082019050919050565b600060208201905081810360008301526110578161101b565b9050919050565b60006040820190506110736000830185610d9e565b6110806020830184610d9e565b9392505050565b7f506c6561736520617070726f7665205553445420666972737400000000000000600082015250565b60006110bd601983610e42565b91506110c882611087565b602082019050919050565b600060208201905081810360008301526110ec816110b0565b9050919050565b60006060820190506111086000830186610d9e565b6111156020830185610d9e565b6111226040830184610c4b565b949350505050565b600061113582610c41565b915061114083610c41565b925082820190508082111561115857611157610f4d565b5b9291505056fea264697066735822122085458f424028eddb9f38f0eec907fb3ff52d85c72b5eae0412b429d79e4e2bfc64736f6c63430008140033",
  "immutableReferences": {},
  "source": "// SPDX-License-Identifier: GPL-3.0\npragma solidity ^0.8.20;\nimport \"@openzeppelin/contracts/access/Ownable.sol\";\nimport \"@openzeppelin/contracts/token/ERC20/IERC20.sol\";\n\ncontract AladdinContract is Ownable {\n    // \n    uint256 public totalAmount;\n    // \n    mapping(address => uint256) public record;\n\n    // AD\n    IERC20 public usdtToken; // USDT \n\n    constructor(address _usdtAddress) Ownable(msg.sender) {\n        usdtToken = IERC20(_usdtAddress);\n    }\n\n    // \n    function deposit(uint256 _amount) public {\n        require(\n            usdtToken.balanceOf(msg.sender) >= _amount,\n            \"Insufficient USDT balance\"\n        );\n        require(\n            usdtToken.allowance(msg.sender, address(this)) >= _amount,\n            \"Please approve USDT first\"\n        );\n        //  USDT \n        usdtToken.transferFrom(msg.sender, address(this), _amount);\n        record[msg.sender] += _amount;\n        totalAmount += _amount;\n    }\n\n    // \n    function withdraw(uint256 _amount) public {\n        require(record[msg.sender] >= _amount, \"insufficient balance\");\n        usdtToken.transfer(msg.sender, _amount);\n        record[msg.sender] -= _amount;\n        totalAmount -= _amount;\n    }\n\n    // \n    function getUserDeposit(address _user) public view returns (uint256) {\n        return record[_user];\n    }\n\n    // \n    function getTotalDeposit() public view returns (uint256) {\n        return totalAmount;\n    }\n    // \n    function withdrawAll() public onlyOwner {\n        usdtToken.transfer(owner(), totalAmount);\n        totalAmount = 0;\n    }\n    // \n    function sendToAddress(address _to, uint256 _amount) public {\n        require(record[msg.sender] >= _amount, \"insufficient balance\");\n        usdtToken.transfer(_to, _amount);\n        record[msg.sender] -= _amount;\n        totalAmount -= _amount;\n    }\n}\n",
  "sourcePath": "/Users/dengxiongfei/Documents/yideng/solidity-demo/aladdin-contract/contracts/aladdin-contract.sol",
  "compiler": {
    "name": "solc",
    "version": "0.8.20+commit.a1b79de6.Emscripten.clang"
  },
  "schemaVersion": "3.4.16",
  "updatedAt": "2025-07-19T07:15:16.518Z",
  "networkType": "ethereum",
  "devdoc": {
    "errors": {
      "OwnableInvalidOwner(address)": [
        {
          "details": "The owner is not a valid owner account. (eg. `address(0)`)"
        }
      ],
      "OwnableUnauthorizedAccount(address)": [
        {
          "details": "The caller account is not authorized to perform an operation."
        }
      ]
    },
    "kind": "dev",
    "methods": {
      "owner()": {
        "details": "Returns the address of the current owner."
      },
      "renounceOwnership()": {
        "details": "Leaves the contract without owner. It will not be possible to call `onlyOwner` functions. Can only be called by the current owner. NOTE: Renouncing ownership will leave the contract without an owner, thereby disabling any functionality that is only available to the owner."
      },
      "transferOwnership(address)": {
        "details": "Transfers ownership of the contract to a new account (`newOwner`). Can only be called by the current owner."
      }
    },
    "version": 1
  },
  "userdoc": {
    "kind": "user",
    "methods": {},
    "version": 1
  }
}