{
  "contractName": "AladdinToken",
  "abi": [
    {
      "inputs": [],
      "stateMutability": "nonpayable",
      "type": "constructor"
    },
    {
      "inputs": [
        {
          "internalType": "address",
          "name": "spender",
          "type": "address"
        },
        {
          "internalType": "uint256",
          "name": "allowance",
          "type": "uint256"
        },
        {
          "internalType": "uint256",
          "name": "needed",
          "type": "uint256"
        }
      ],
      "name": "ERC20InsufficientAllowance",
      "type": "error"
    },
    {
      "inputs": [
        {
          "internalType": "address",
          "name": "sender",
          "type": "address"
        },
        {
          "internalType": "uint256",
          "name": "balance",
          "type": "uint256"
        },
        {
          "internalType": "uint256",
          "name": "needed",
          "type": "uint256"
        }
      ],
      "name": "ERC20InsufficientBalance",
      "type": "error"
    },
    {
      "inputs": [
        {
          "internalType": "address",
          "name": "approver",
          "type": "address"
        }
      ],
      "name": "ERC20InvalidApprover",
      "type": "error"
    },
    {
      "inputs": [
        {
          "internalType": "address",
          "name": "receiver",
          "type": "address"
        }
      ],
      "name": "ERC20InvalidReceiver",
      "type": "error"
    },
    {
      "inputs": [
        {
          "internalType": "address",
          "name": "sender",
          "type": "address"
        }
      ],
      "name": "ERC20InvalidSender",
      "type": "error"
    },
    {
      "inputs": [
        {
          "internalType": "address",
          "name": "spender",
          "type": "address"
        }
      ],
      "name": "ERC20InvalidSpender",
      "type": "error"
    },
    {
      "inputs": [
        {
          "internalType": "address",
          "name": "owner",
          "type": "address"
        }
      ],
      "name": "OwnableInvalidOwner",
      "type": "error"
    },
    {
      "inputs": [
        {
          "internalType": "address",
          "name": "account",
          "type": "address"
        }
      ],
      "name": "OwnableUnauthorizedAccount",
      "type": "error"
    },
    {
      "anonymous": false,
      "inputs": [
        {
          "indexed": true,
          "internalType": "address",
          "name": "owner",
          "type": "address"
        },
        {
          "indexed": true,
          "internalType": "address",
          "name": "spender",
          "type": "address"
        },
        {
          "indexed": false,
          "internalType": "uint256",
          "name": "value",
          "type": "uint256"
        }
      ],
      "name": "Approval",
      "type": "event"
    },
    {
      "anonymous": false,
      "inputs": [
        {
          "indexed": true,
          "internalType": "address",
          "name": "previousOwner",
          "type": "address"
        },
        {
          "indexed": true,
          "internalType": "address",
          "name": "newOwner",
          "type": "address"
        }
      ],
      "name": "OwnershipTransferred",
      "type": "event"
    },
    {
      "anonymous": false,
      "inputs": [
        {
          "indexed": true,
          "internalType": "address",
          "name": "from",
          "type": "address"
        },
        {
          "indexed": true,
          "internalType": "address",
          "name": "to",
          "type": "address"
        },
        {
          "indexed": false,
          "internalType": "uint256",
          "name": "value",
          "type": "uint256"
        }
      ],
      "name": "Transfer",
      "type": "event"
    },
    {
      "inputs": [],
      "name": "EXCHANGE_RATE",
      "outputs": [
        {
          "internalType": "uint256",
          "name": "",
          "type": "uint256"
        }
      ],
      "stateMutability": "view",
      "type": "function"
    },
    {
      "inputs": [],
      "name": "INITIAL_SUPPLY",
      "outputs": [
        {
          "internalType": "uint256",
          "name": "",
          "type": "uint256"
        }
      ],
      "stateMutability": "view",
      "type": "function"
    },
    {
      "inputs": [],
      "name": "NAME",
      "outputs": [
        {
          "internalType": "string",
          "name": "",
          "type": "string"
        }
      ],
      "stateMutability": "view",
      "type": "function"
    },
    {
      "inputs": [],
      "name": "SYMBOL",
      "outputs": [
        {
          "internalType": "string",
          "name": "",
          "type": "string"
        }
      ],
      "stateMutability": "view",
      "type": "function"
    },
    {
      "inputs": [
        {
          "internalType": "address",
          "name": "owner",
          "type": "address"
        },
        {
          "internalType": "address",
          "name": "spender",
          "type": "address"
        }
      ],
      "name": "allowance",
      "outputs": [
        {
          "internalType": "uint256",
          "name": "",
          "type": "uint256"
        }
      ],
      "stateMutability": "view",
      "type": "function"
    },
    {
      "inputs": [
        {
          "internalType": "address",
          "name": "spender",
          "type": "address"
        },
        {
          "internalType": "uint256",
          "name": "value",
          "type": "uint256"
        }
      ],
      "name": "approve",
      "outputs": [
        {
          "internalType": "bool",
          "name": "",
          "type": "bool"
        }
      ],
      "stateMutability": "nonpayable",
      "type": "function"
    },
    {
      "inputs": [
        {
          "internalType": "address",
          "name": "account",
          "type": "address"
        }
      ],
      "name": "balanceOf",
      "outputs": [
        {
          "internalType": "uint256",
          "name": "",
          "type": "uint256"
        }
      ],
      "stateMutability": "view",
      "type": "function"
    },
    {
      "inputs": [],
      "name": "name",
      "outputs": [
        {
          "internalType": "string",
          "name": "",
          "type": "string"
        }
      ],
      "stateMutability": "view",
      "type": "function"
    },
    {
      "inputs": [],
      "name": "owner",
      "outputs": [
        {
          "internalType": "address",
          "name": "",
          "type": "address"
        }
      ],
      "stateMutability": "view",
      "type": "function"
    },
    {
      "inputs": [],
      "name": "renounceOwnership",
      "outputs": [],
      "stateMutability": "nonpayable",
      "type": "function"
    },
    {
      "inputs": [],
      "name": "symbol",
      "outputs": [
        {
          "internalType": "string",
          "name": "",
          "type": "string"
        }
      ],
      "stateMutability": "view",
      "type": "function"
    },
    {
      "inputs": [],
      "name": "totalSupply",
      "outputs": [
        {
          "internalType": "uint256",
          "name": "",
          "type": "uint256"
        }
      ],
      "stateMutability": "view",
      "type": "function"
    },
    {
      "inputs": [
        {
          "internalType": "address",
          "name": "to",
          "type": "address"
        },
        {
          "internalType": "uint256",
          "name": "value",
          "type": "uint256"
        }
      ],
      "name": "transfer",
      "outputs": [
        {
          "internalType": "bool",
          "name": "",
          "type": "bool"
        }
      ],
      "stateMutability": "nonpayable",
      "type": "function"
    },
    {
      "inputs": [
        {
          "internalType": "address",
          "name": "from",
          "type": "address"
        },
        {
          "internalType": "address",
          "name": "to",
          "type": "address"
        },
        {
          "internalType": "uint256",
          "name": "value",
          "type": "uint256"
        }
      ],
      "name": "transferFrom",
      "outputs": [
        {
          "internalType": "bool",
          "name": "",
          "type": "bool"
        }
      ],
      "stateMutability": "nonpayable",
      "type": "function"
    },
    {
      "inputs": [
        {
          "internalType": "address",
          "name": "newOwner",
          "type": "address"
        }
      ],
      "name": "transferOwnership",
      "outputs": [],
      "stateMutability": "nonpayable",
      "type": "function"
    },
    {
      "inputs": [],
      "name": "decimals",
      "outputs": [
        {
          "internalType": "uint8",
          "name": "",
          "type": "uint8"
        }
      ],
      "stateMutability": "pure",
      "type": "function"
    },
    {
      "inputs": [],
      "name": "buyTokens",
      "outputs": [],
      "stateMutability": "payable",
      "type": "function"
    },
    {
      "inputs": [],
      "name": "withdrawETH",
      "outputs": [],
      "stateMutability": "nonpayable",
      "type": "function"
    },
    {
      "inputs": [
        {
          "internalType": "address",
          "name": "_user",
          "type": "address"
        },
        {
          "internalType": "uint256",
          "name": "_amount",
          "type": "uint256"
        }
      ],
      "name": "giveTokens",
      "outputs": [],
      "stateMutability": "nonpayable",
      "type": "function"
    }
  ],
  "bytecode": "0x60806040523480156200001157600080fd5b50336040518060400160405280601181526020017f416c616464696e4552433230546f6b656e0000000000000000000000000000008152506040518060400160405280600281526020017f4144000000000000000000000000000000000000000000000000000000000000815250816003908162000090919062000765565b508060049081620000a2919062000765565b505050600073ffffffffffffffffffffffffffffffffffffffff168173ffffffffffffffffffffffffffffffffffffffff16036200011a5760006040517f1e4fbdf700000000000000000000000000000000000000000000000000000000815260040162000111919062000891565b60405180910390fd5b620001348162000159640100000000026401000000009004565b506200015333620f42406200021f640100000000026401000000009004565b62000983565b6000600560009054906101000a900473ffffffffffffffffffffffffffffffffffffffff16905081600560006101000a81548173ffffffffffffffffffffffffffffffffffffffff021916908373ffffffffffffffffffffffffffffffffffffffff1602179055508173ffffffffffffffffffffffffffffffffffffffff168173ffffffffffffffffffffffffffffffffffffffff167f8be0079c531659141344cd1fd0a4f28419497f9722a3daafe3b4186f6b6457e060405160405180910390a35050565b600073ffffffffffffffffffffffffffffffffffffffff168273ffffffffffffffffffffffffffffffffffffffff1603620002945760006040517fec442f050000000000000000000000000000000000000000000000000000000081526004016200028b919062000891565b60405180910390fd5b620002b160008383620002b5640100000000026401000000009004565b5050565b600073ffffffffffffffffffffffffffffffffffffffff168373ffffffffffffffffffffffffffffffffffffffff16036200030b578060026000828254620002fe9190620008dd565b92505081905550620003e1565b60008060008573ffffffffffffffffffffffffffffffffffffffff1673ffffffffffffffffffffffffffffffffffffffff168152602001908152602001600020549050818110156200039a578381836040517fe450d38c000000000000000000000000000000000000000000000000000000008152600401620003919392919062000929565b60405180910390fd5b8181036000808673ffffffffffffffffffffffffffffffffffffffff1673ffffffffffffffffffffffffffffffffffffffff16815260200190815260200160002081905550505b600073ffffffffffffffffffffffffffffffffffffffff168273ffffffffffffffffffffffffffffffffffffffff16036200042c578060026000828254039250508190555062000479565b806000808473ffffffffffffffffffffffffffffffffffffffff1673ffffffffffffffffffffffffffffffffffffffff168152602001908152602001600020600082825401925050819055505b8173ffffffffffffffffffffffffffffffffffffffff168373ffffffffffffffffffffffffffffffffffffffff167fddf252ad1be2c89b69c2b068fc378daa952ba7f163c4a11628f55a4df523b3ef83604051620004d8919062000966565b60405180910390a3505050565b600081519050919050565b7f4e487b7100000000000000000000000000000000000000000000000000000000600052604160045260246000fd5b7f4e487b7100000000000000000000000000000000000000000000000000000000600052602260045260246000fd5b600060028204905060018216806200056757607f821691505b6020821081036200057d576200057c6200051f565b5b50919050565b60008190508160005260206000209050919050565b60006020601f8301049050919050565b60008160020a8302905092915050565b600060088302620005ea7fffffffffffffffffffffffffffffffffffffffffffffffffffffffffffffffff82620005a8565b620005f68683620005a8565b95508019841693508086168417925050509392505050565b6000819050919050565b6000819050919050565b6000620006436200063d62000637846200060e565b62000618565b6200060e565b9050919050565b6000819050919050565b6200065f8362000622565b620006776200066e826200064a565b848454620005b8565b825550505050565b600090565b6200068e6200067f565b6200069b81848462000654565b505050565b5b81811015620006c357620006b760008262000684565b600181019050620006a1565b5050565b601f8211156200071257620006dc8162000583565b620006e78462000598565b81016020851015620006f7578190505b6200070f620007068562000598565b830182620006a0565b50505b505050565b60008160020a8304905092915050565b60006200073a6000198460080262000717565b1980831691505092915050565b600062000755838362000727565b9150826002028217905092915050565b6200077082620004e5565b67ffffffffffffffff8111156200078c576200078b620004f0565b5b6200079882546200054e565b620007a5828285620006c7565b600060209050601f831160018114620007dd5760008415620007c8578287015190505b620007d4858262000747565b86555062000844565b601f198416620007ed8662000583565b60005b828110156200081757848901518255600182019150602085019450602081019050620007f0565b8683101562000837578489015162000833601f89168262000727565b8355505b6001600288020188555050505b505050505050565b600073ffffffffffffffffffffffffffffffffffffffff82169050919050565b600062000879826200084c565b9050919050565b6200088b816200086c565b82525050565b6000602082019050620008a8600083018462000880565b92915050565b7f4e487b7100000000000000000000000000000000000000000000000000000000600052601160045260246000fd5b6000620008ea826200060e565b9150620008f7836200060e565b9250828201905080821115620009125762000911620008ae565b5b92915050565b62000923816200060e565b82525050565b600060608201905062000940600083018662000880565b6200094f602083018562000918565b6200095e604083018462000918565b949350505050565b60006020820190506200097d600083018462000918565b92915050565b61165780620009936000396000f3fe608060405260043610610131576000357c010000000000000000000000000000000000000000000000000000000090048063715018a6116100bd578063d0febe4c11610081578063d0febe4c146103c2578063dd62ed3e146103cc578063e086e5ec14610409578063f2fde38b14610420578063f76f8d781461044957610131565b8063715018a6146102ed5780638da5cb5b1461030457806395d89b411461032f578063a3f4df7e1461035a578063a9059cbb1461038557610131565b806323b872dd1161010457806323b872dd146101f45780632ff2e9dc14610231578063313ce5671461025c57806368dc95281461028757806370a08231146102b057610131565b806306fdde0314610136578063095ea7b31461016157806314a8bd0d1461019e57806318160ddd146101c9575b600080fd5b34801561014257600080fd5b5061014b610474565b604051610158919061110b565b60405180910390f35b34801561016d57600080fd5b50610188600480360381019061018391906111c6565b610506565b6040516101959190611221565b60405180910390f35b3480156101aa57600080fd5b506101b3610529565b6040516101c0919061124b565b60405180910390f35b3480156101d557600080fd5b506101de61052f565b6040516101eb919061124b565b60405180910390f35b34801561020057600080fd5b5061021b60048036038101906102169190611266565b610539565b6040516102289190611221565b60405180910390f35b34801561023d57600080fd5b50610246610568565b604051610253919061124b565b60405180910390f35b34801561026857600080fd5b5061027161056f565b60405161027e91906112d5565b60405180910390f35b34801561029357600080fd5b506102ae60048036038101906102a991906111c6565b610574565b005b3480156102bc57600080fd5b506102d760048036038101906102d291906112f0565b610592565b6040516102e4919061124b565b60405180910390f35b3480156102f957600080fd5b506103026105da565b005b34801561031057600080fd5b506103196105ee565b604051610326919061132c565b60405180910390f35b34801561033b57600080fd5b50610344610618565b604051610351919061110b565b60405180910390f35b34801561036657600080fd5b5061036f6106aa565b60405161037c919061110b565b60405180910390f35b34801561039157600080fd5b506103ac60048036038101906103a791906111c6565b6106e3565b6040516103b99190611221565b60405180910390f35b6103ca610706565b005b3480156103d857600080fd5b506103f360048036038101906103ee9190611347565b6107da565b604051610400919061124b565b60405180910390f35b34801561041557600080fd5b5061041e610861565b005b34801561042c57600080fd5b50610447600480360381019061044291906112f0565b6108d0565b005b34801561045557600080fd5b5061045e610956565b60405161046b919061110b565b60405180910390f35b606060038054610483906113b6565b80601f01602080910402602001604051908101604052809291908181526020018280546104af906113b6565b80156104fc5780601f106104d1576101008083540402835291602001916104fc565b820191906000526020600020905b8154815290600101906020018083116104df57829003601f168201915b5050505050905090565b60008061051161098f565b905061051e818585610997565b600191505092915050565b61271081565b6000600254905090565b60008061054461098f565b90506105518582856109a9565b61055c858585610a3e565b60019150509392505050565b620f424081565b600090565b61057c610b32565b61058e6105876105ee565b8383610a3e565b5050565b60008060008373ffffffffffffffffffffffffffffffffffffffff1673ffffffffffffffffffffffffffffffffffffffff168152602001908152602001600020549050919050565b6105e2610b32565b6105ec6000610bb9565b565b6000600560009054906101000a900473ffffffffffffffffffffffffffffffffffffffff16905090565b606060048054610627906113b6565b80601f0160208091040260200160405190810160405280929190818152602001828054610653906113b6565b80156106a05780601f10610675576101008083540402835291602001916106a0565b820191906000526020600020905b81548152906001019060200180831161068357829003601f168201915b5050505050905090565b6040518060400160405280601181526020017f416c616464696e4552433230546f6b656e00000000000000000000000000000081525081565b6000806106ee61098f565b90506106fb818585610a3e565b600191505092915050565b655af3107a4000341161074e576040517f08c379a000000000000000000000000000000000000000000000000000000000815260040161074590611459565b60405180910390fd5b6000670de0b6b3a76400006127103461076791906114a8565b6107719190611519565b90508061078461077f6105ee565b610592565b10156107c5576040517f08c379a00000000000000000000000000000000000000000000000000000000081526004016107bc90611596565b60405180910390fd5b6107d76107d06105ee565b3383610a3e565b50565b6000600160008473ffffffffffffffffffffffffffffffffffffffff1673ffffffffffffffffffffffffffffffffffffffff16815260200190815260200160002060008373ffffffffffffffffffffffffffffffffffffffff1673ffffffffffffffffffffffffffffffffffffffff16815260200190815260200160002054905092915050565b610869610b32565b6108716105ee565b73ffffffffffffffffffffffffffffffffffffffff166108fc3073ffffffffffffffffffffffffffffffffffffffff16319081150290604051600060405180830381858888f193505050501580156108cd573d6000803e3d6000fd5b50565b6108d8610b32565b600073ffffffffffffffffffffffffffffffffffffffff168173ffffffffffffffffffffffffffffffffffffffff160361094a5760006040517f1e4fbdf7000000000000000000000000000000000000000000000000000000008152600401610941919061132c565b60405180910390fd5b61095381610bb9565b50565b6040518060400160405280600281526020017f414400000000000000000000000000000000000000000000000000000000000081525081565b600033905090565b6109a48383836001610c7f565b505050565b60006109b584846107da565b90507fffffffffffffffffffffffffffffffffffffffffffffffffffffffffffffffff811015610a385781811015610a28578281836040517ffb8f41b2000000000000000000000000000000000000000000000000000000008152600401610a1f939291906115b6565b60405180910390fd5b610a3784848484036000610c7f565b5b50505050565b600073ffffffffffffffffffffffffffffffffffffffff168373ffffffffffffffffffffffffffffffffffffffff1603610ab05760006040517f96c6fd1e000000000000000000000000000000000000000000000000000000008152600401610aa7919061132c565b60405180910390fd5b600073ffffffffffffffffffffffffffffffffffffffff168273ffffffffffffffffffffffffffffffffffffffff1603610b225760006040517fec442f05000000000000000000000000000000000000000000000000000000008152600401610b19919061132c565b60405180910390fd5b610b2d838383610e56565b505050565b610b3a61098f565b73ffffffffffffffffffffffffffffffffffffffff16610b586105ee565b73ffffffffffffffffffffffffffffffffffffffff1614610bb757610b7b61098f565b6040517f118cdaa7000000000000000000000000000000000000000000000000000000008152600401610bae919061132c565b60405180910390fd5b565b6000600560009054906101000a900473ffffffffffffffffffffffffffffffffffffffff16905081600560006101000a81548173ffffffffffffffffffffffffffffffffffffffff021916908373ffffffffffffffffffffffffffffffffffffffff1602179055508173ffffffffffffffffffffffffffffffffffffffff168173ffffffffffffffffffffffffffffffffffffffff167f8be0079c531659141344cd1fd0a4f28419497f9722a3daafe3b4186f6b6457e060405160405180910390a35050565b600073ffffffffffffffffffffffffffffffffffffffff168473ffffffffffffffffffffffffffffffffffffffff1603610cf15760006040517fe602df05000000000000000000000000000000000000000000000000000000008152600401610ce8919061132c565b60405180910390fd5b600073ffffffffffffffffffffffffffffffffffffffff168373ffffffffffffffffffffffffffffffffffffffff1603610d635760006040517f94280d62000000000000000000000000000000000000000000000000000000008152600401610d5a919061132c565b60405180910390fd5b81600160008673ffffffffffffffffffffffffffffffffffffffff1673ffffffffffffffffffffffffffffffffffffffff16815260200190815260200160002060008573ffffffffffffffffffffffffffffffffffffffff1673ffffffffffffffffffffffffffffffffffffffff168152602001908152602001600020819055508015610e50578273ffffffffffffffffffffffffffffffffffffffff168473ffffffffffffffffffffffffffffffffffffffff167f8c5be1e5ebec7d5bd14f71427d1e84f3dd0314c0f7b2291e5b200ac8c7c3b92584604051610e47919061124b565b60405180910390a35b50505050565b600073ffffffffffffffffffffffffffffffffffffffff168373ffffffffffffffffffffffffffffffffffffffff1603610ea8578060026000828254610e9c91906115ed565b92505081905550610f7b565b60008060008573ffffffffffffffffffffffffffffffffffffffff1673ffffffffffffffffffffffffffffffffffffffff16815260200190815260200160002054905081811015610f34578381836040517fe450d38c000000000000000000000000000000000000000000000000000000008152600401610f2b939291906115b6565b60405180910390fd5b8181036000808673ffffffffffffffffffffffffffffffffffffffff1673ffffffffffffffffffffffffffffffffffffffff16815260200190815260200160002081905550505b600073ffffffffffffffffffffffffffffffffffffffff168273ffffffffffffffffffffffffffffffffffffffff1603610fc45780600260008282540392505081905550611011565b806000808473ffffffffffffffffffffffffffffffffffffffff1673ffffffffffffffffffffffffffffffffffffffff168152602001908152602001600020600082825401925050819055505b8173ffffffffffffffffffffffffffffffffffffffff168373ffffffffffffffffffffffffffffffffffffffff167fddf252ad1be2c89b69c2b068fc378daa952ba7f163c4a11628f55a4df523b3ef8360405161106e919061124b565b60405180910390a3505050565b600081519050919050565b600082825260208201905092915050565b60005b838110156110b557808201518184015260208101905061109a565b60008484015250505050565b6000601f19601f8301169050919050565b60006110dd8261107b565b6110e78185611086565b93506110f7818560208601611097565b611100816110c1565b840191505092915050565b6000602082019050818103600083015261112581846110d2565b905092915050565b600080fd5b600073ffffffffffffffffffffffffffffffffffffffff82169050919050565b600061115d82611132565b9050919050565b61116d81611152565b811461117857600080fd5b50565b60008135905061118a81611164565b92915050565b6000819050919050565b6111a381611190565b81146111ae57600080fd5b50565b6000813590506111c08161119a565b92915050565b600080604083850312156111dd576111dc61112d565b5b60006111eb8582860161117b565b92505060206111fc858286016111b1565b9150509250929050565b60008115159050919050565b61121b81611206565b82525050565b60006020820190506112366000830184611212565b92915050565b61124581611190565b82525050565b6000602082019050611260600083018461123c565b92915050565b60008060006060848603121561127f5761127e61112d565b5b600061128d8682870161117b565b935050602061129e8682870161117b565b92505060406112af868287016111b1565b9150509250925092565b600060ff82169050919050565b6112cf816112b9565b82525050565b60006020820190506112ea60008301846112c6565b92915050565b6000602082840312156113065761130561112d565b5b60006113148482850161117b565b91505092915050565b61132681611152565b82525050565b6000602082019050611341600083018461131d565b92915050565b6000806040838503121561135e5761135d61112d565b5b600061136c8582860161117b565b925050602061137d8582860161117b565b9150509250929050565b7f4e487b7100000000000000000000000000000000000000000000000000000000600052602260045260246000fd5b600060028204905060018216806113ce57607f821691505b6020821081036113e1576113e0611387565b5b50919050565b7f45544820616d6f756e74206d7573742062652067726561746572207468616e2060008201527f302e303030310000000000000000000000000000000000000000000000000000602082015250565b6000611443602683611086565b915061144e826113e7565b604082019050919050565b6000602082019050818103600083015261147281611436565b9050919050565b7f4e487b7100000000000000000000000000000000000000000000000000000000600052601160045260246000fd5b60006114b382611190565b91506114be83611190565b92508282026114cc81611190565b915082820484148315176114e3576114e2611479565b5b5092915050565b7f4e487b7100000000000000000000000000000000000000000000000000000000600052601260045260246000fd5b600061152482611190565b915061152f83611190565b92508261153f5761153e6114ea565b5b828204905092915050565b7f496e73756666696369656e7420746f6b656e7320696e20636f6e747261637400600082015250565b6000611580601f83611086565b915061158b8261154a565b602082019050919050565b600060208201905081810360008301526115af81611573565b9050919050565b60006060820190506115cb600083018661131d565b6115d8602083018561123c565b6115e5604083018461123c565b949350505050565b60006115f882611190565b915061160383611190565b925082820190508082111561161b5761161a611479565b5b9291505056fea2646970667358221220603bced857d618e503bc2be7f10f37d7dfd816028f02ce547923b6cf11a4fe5b64736f6c63430008140033",
  "immutableReferences": {},
  "source": "// SPDX-License-Identifier: MIT\npragma solidity ^0.8.20;\n\nimport \"@openzeppelin/contracts/token/ERC20/ERC20.sol\";\nimport \"@openzeppelin/contracts/access/Ownable.sol\";\n\ncontract AladdinToken is ERC20, Ownable {\n    // \n    string public constant NAME = \"AladdinERC20Token\";\n\n    // \n    string public constant SYMBOL = \"AD\";\n\n    // \n    uint256 public constant INITIAL_SUPPLY = 1000000;\n\n    // ETH  (1 ETH = 10000 YD)\n    uint256 public constant EXCHANGE_RATE = 10000;\n\n    constructor() ERC20(NAME, SYMBOL) Ownable(msg.sender) {\n        //  _mint \n        _mint(msg.sender, INITIAL_SUPPLY);\n    }\n\n    //  decimals  0,eth18\n    function decimals() public pure override returns (uint8) {\n        return 0;\n    }\n\n    //  ETH payable  msg.value \n    function buyTokens() public payable {\n        //  eth  0.0001\n        require(\n            msg.value > 0.0001 ether,\n            \"ETH amount must be greater than 0.0001\"\n        );\n        uint256 tokenAmount = (msg.value * EXCHANGE_RATE) / 1 ether;\n        require(\n            balanceOf(owner()) >= tokenAmount,\n            \"Insufficient tokens in contract\"\n        );\n        // \n        _transfer(owner(), msg.sender, tokenAmount);\n    }\n\n    //  ETH\n    function withdrawETH() public onlyOwner {\n        payable(owner()).transfer(address(this).balance);\n    }\n\n    // \n    function giveTokens(address _user, uint256 _amount) public onlyOwner {\n        _transfer(owner(), _user, _amount);\n    }\n}\n",
  "sourcePath": "/Users/dengxiongfei/Documents/yideng/solidity-demo/aladdin-contract/contracts/aladdin-token.sol",
  "compiler": {
    "name": "solc",
    "version": "0.8.20+commit.a1b79de6.Emscripten.clang"
  },
  "schemaVersion": "3.4.16",
  "updatedAt": "2025-07-19T06:43:19.313Z",
  "devdoc": {
    "errors": {
      "ERC20InsufficientAllowance(address,uint256,uint256)": [
        {
          "details": "Indicates a failure with the `spender`s `allowance`. Used in transfers.",
          "params": {
            "allowance": "Amount of tokens a `spender` is allowed to operate with.",
            "needed": "Minimum amount required to perform a transfer.",
            "spender": "Address that may be allowed to operate on tokens without being their owner."
          }
        }
      ],
      "ERC20InsufficientBalance(address,uint256,uint256)": [
        {
          "details": "Indicates an error related to the current `balance` of a `sender`. Used in transfers.",
          "params": {
            "balance": "Current balance for the interacting account.",
            "needed": "Minimum amount required to perform a transfer.",
            "sender": "Address whose tokens are being transferred."
          }
        }
      ],
      "ERC20InvalidApprover(address)": [
        {
          "details": "Indicates a failure with the `approver` of a token to be approved. Used in approvals.",
          "params": {
            "approver": "Address initiating an approval operation."
          }
        }
      ],
      "ERC20InvalidReceiver(address)": [
        {
          "details": "Indicates a failure with the token `receiver`. Used in transfers.",
          "params": {
            "receiver": "Address to which tokens are being transferred."
          }
        }
      ],
      "ERC20InvalidSender(address)": [
        {
          "details": "Indicates a failure with the token `sender`. Used in transfers.",
          "params": {
            "sender": "Address whose tokens are being transferred."
          }
        }
      ],
      "ERC20InvalidSpender(address)": [
        {
          "details": "Indicates a failure with the `spender` to be approved. Used in approvals.",
          "params": {
            "spender": "Address that may be allowed to operate on tokens without being their owner."
          }
        }
      ],
      "OwnableInvalidOwner(address)": [
        {
          "details": "The owner is not a valid owner account. (eg. `address(0)`)"
        }
      ],
      "OwnableUnauthorizedAccount(address)": [
        {
          "details": "The caller account is not authorized to perform an operation."
        }
      ]
    },
    "events": {
      "Approval(address,address,uint256)": {
        "details": "Emitted when the allowance of a `spender` for an `owner` is set by a call to {approve}. `value` is the new allowance."
      },
      "Transfer(address,address,uint256)": {
        "details": "Emitted when `value` tokens are moved from one account (`from`) to another (`to`). Note that `value` may be zero."
      }
    },
    "kind": "dev",
    "methods": {
      "allowance(address,address)": {
        "details": "Returns the remaining number of tokens that `spender` will be allowed to spend on behalf of `owner` through {transferFrom}. This is zero by default. This value changes when {approve} or {transferFrom} are called."
      },
      "approve(address,uint256)": {
        "details": "See {IERC20-approve}. NOTE: If `value` is the maximum `uint256`, the allowance is not updated on `transferFrom`. This is semantically equivalent to an infinite approval. Requirements: - `spender` cannot be the zero address."
      },
      "balanceOf(address)": {
        "details": "Returns the value of tokens owned by `account`."
      },
      "decimals()": {
        "details": "Returns the number of decimals used to get its user representation. For example, if `decimals` equals `2`, a balance of `505` tokens should be displayed to a user as `5.05` (`505 / 10 ** 2`). Tokens usually opt for a value of 18, imitating the relationship between Ether and Wei. This is the default value returned by this function, unless it's overridden. NOTE: This information is only used for _display_ purposes: it in no way affects any of the arithmetic of the contract, including {IERC20-balanceOf} and {IERC20-transfer}."
      },
      "name()": {
        "details": "Returns the name of the token."
      },
      "owner()": {
        "details": "Returns the address of the current owner."
      },
      "renounceOwnership()": {
        "details": "Leaves the contract without owner. It will not be possible to call `onlyOwner` functions. Can only be called by the current owner. NOTE: Renouncing ownership will leave the contract without an owner, thereby disabling any functionality that is only available to the owner."
      },
      "symbol()": {
        "details": "Returns the symbol of the token, usually a shorter version of the name."
      },
      "totalSupply()": {
        "details": "Returns the value of tokens in existence."
      },
      "transfer(address,uint256)": {
        "details": "See {IERC20-transfer}. Requirements: - `to` cannot be the zero address. - the caller must have a balance of at least `value`."
      },
      "transferFrom(address,address,uint256)": {
        "details": "See {IERC20-transferFrom}. Skips emitting an {Approval} event indicating an allowance update. This is not required by the ERC. See {xref-ERC20-_approve-address-address-uint256-bool-}[_approve]. NOTE: Does not update the allowance if the current allowance is the maximum `uint256`. Requirements: - `from` and `to` cannot be the zero address. - `from` must have a balance of at least `value`. - the caller must have allowance for ``from``'s tokens of at least `value`."
      },
      "transferOwnership(address)": {
        "details": "Transfers ownership of the contract to a new account (`newOwner`). Can only be called by the current owner."
      }
    },
    "version": 1
  },
  "userdoc": {
    "kind": "user",
    "methods": {},
    "version": 1
  }
}