{
  "contractName": "RedPacket",
  "abi": [
    {
      "inputs": [
        {
          "internalType": "uint256",
          "name": "_count",
          "type": "uint256"
        },
        {
          "internalType": "bool",
          "name": "_isEqual",
          "type": "bool"
        }
      ],
      "stateMutability": "payable",
      "type": "constructor",
      "payable": true
    },
    {
      "inputs": [],
      "name": "count",
      "outputs": [
        {
          "internalType": "uint256",
          "name": "",
          "type": "uint256"
        }
      ],
      "stateMutability": "view",
      "type": "function",
      "constant": true
    },
    {
      "inputs": [],
      "name": "currentRound",
      "outputs": [
        {
          "internalType": "uint256",
          "name": "",
          "type": "uint256"
        }
      ],
      "stateMutability": "view",
      "type": "function",
      "constant": true
    },
    {
      "inputs": [],
      "name": "isEqual",
      "outputs": [
        {
          "internalType": "bool",
          "name": "",
          "type": "bool"
        }
      ],
      "stateMutability": "view",
      "type": "function",
      "constant": true
    },
    {
      "inputs": [
        {
          "internalType": "uint256",
          "name": "",
          "type": "uint256"
        },
        {
          "internalType": "address",
          "name": "",
          "type": "address"
        }
      ],
      "name": "isGrabbed",
      "outputs": [
        {
          "internalType": "bool",
          "name": "",
          "type": "bool"
        }
      ],
      "stateMutability": "view",
      "type": "function",
      "constant": true
    },
    {
      "inputs": [],
      "name": "owner",
      "outputs": [
        {
          "internalType": "address payable",
          "name": "",
          "type": "address"
        }
      ],
      "stateMutability": "view",
      "type": "function",
      "constant": true
    },
    {
      "inputs": [],
      "name": "totalAmount",
      "outputs": [
        {
          "internalType": "uint256",
          "name": "",
          "type": "uint256"
        }
      ],
      "stateMutability": "view",
      "type": "function",
      "constant": true
    },
    {
      "inputs": [
        {
          "internalType": "uint256",
          "name": "_count",
          "type": "uint256"
        },
        {
          "internalType": "bool",
          "name": "_isEqual",
          "type": "bool"
        }
      ],
      "name": "deposit",
      "outputs": [],
      "stateMutability": "payable",
      "type": "function",
      "payable": true
    },
    {
      "inputs": [],
      "name": "withdraw",
      "outputs": [],
      "stateMutability": "nonpayable",
      "type": "function"
    },
    {
      "inputs": [],
      "name": "geBalance",
      "outputs": [
        {
          "internalType": "uint256",
          "name": "",
          "type": "uint256"
        }
      ],
      "stateMutability": "view",
      "type": "function",
      "constant": true
    },
    {
      "inputs": [],
      "name": "grabRedPacket",
      "outputs": [
        {
          "internalType": "uint256",
          "name": "",
          "type": "uint256"
        }
      ],
      "stateMutability": "nonpayable",
      "type": "function"
    }
  ],
  "bytecode": "0x60806040526040516200126f3803806200126f833981810160405281019062000029919062000164565b600034116200006f576040517f08c379a000000000000000000000000000000000000000000000000000000000815260040162000066906200020c565b60405180910390fd5b336000806101000a81548173ffffffffffffffffffffffffffffffffffffffff021916908373ffffffffffffffffffffffffffffffffffffffff1602179055508160028190555080600360006101000a81548160ff02191690831515021790555034600181905550600160048190555050506200022e565b600080fd5b6000819050919050565b6200010181620000ec565b81146200010d57600080fd5b50565b6000815190506200012181620000f6565b92915050565b60008115159050919050565b6200013e8162000127565b81146200014a57600080fd5b50565b6000815190506200015e8162000133565b92915050565b600080604083850312156200017e576200017d620000e7565b5b60006200018e8582860162000110565b9250506020620001a1858286016200014d565b9150509250929050565b600082825260208201905092915050565b7f616d6f756e74206d7573742062652067726561746572207468616e2030000000600082015250565b6000620001f4601d83620001ab565b91506200020182620001bc565b602082019050919050565b600060208201905081810360008301526200022781620001e5565b9050919050565b611031806200023e6000396000f3fe6080604052600436106100ae576000357c010000000000000000000000000000000000000000000000000000000090048063906d582f11610076578063906d582f146101765780639a408321146101a1578063acbe8452146101bd578063c4712e21146101e8578063d768f12314610213576100ae565b806306661abd146100b35780631a39d8ef146100de5780633ccfd60b146101095780638a19c8bc146101205780638da5cb5b1461014b575b600080fd5b3480156100bf57600080fd5b506100c8610250565b6040516100d5919061089c565b60405180910390f35b3480156100ea57600080fd5b506100f3610256565b604051610100919061089c565b60405180910390f35b34801561011557600080fd5b5061011e61025c565b005b34801561012c57600080fd5b5061013561037d565b604051610142919061089c565b60405180910390f35b34801561015757600080fd5b50610160610383565b60405161016d91906108f8565b60405180910390f35b34801561018257600080fd5b5061018b6103a7565b604051610198919061089c565b60405180910390f35b6101bb60048036038101906101b6919061097c565b6103c6565b005b3480156101c957600080fd5b506101d26104a9565b6040516101df91906109cb565b60405180910390f35b3480156101f457600080fd5b506101fd6104bc565b60405161020a919061089c565b60405180910390f35b34801561021f57600080fd5b5061023a60048036038101906102359190610a24565b610854565b60405161024791906109cb565b60405180910390f35b60025481565b60015481565b60008054906101000a900473ffffffffffffffffffffffffffffffffffffffff1673ffffffffffffffffffffffffffffffffffffffff163373ffffffffffffffffffffffffffffffffffffffff16146102ea576040517f08c379a00000000000000000000000000000000000000000000000000000000081526004016102e190610ac1565b60405180910390fd5b60008054906101000a900473ffffffffffffffffffffffffffffffffffffffff1673ffffffffffffffffffffffffffffffffffffffff166108fc6001549081150290604051600060405180830381858888f19350505050158015610352573d6000803e3d6000fd5b50600060028190555060006001819055506004600081548092919061037690610b10565b9190505550565b60045481565b60008054906101000a900473ffffffffffffffffffffffffffffffffffffffff1681565b60003073ffffffffffffffffffffffffffffffffffffffff1631905090565b60003411610409576040517f08c379a000000000000000000000000000000000000000000000000000000000815260040161040090610ba4565b60405180910390fd5b6000826002546104199190610bc4565b11610459576040517f08c379a000000000000000000000000000000000000000000000000000000000815260040161045090610c6a565b60405180910390fd5b346001600082825461046b9190610bc4565b9250508190555081600260008282546104849190610bc4565b9250508190555080600360006101000a81548160ff0219169083151502179055505050565b600360009054906101000a900460ff1681565b60008060025411610502576040517f08c379a00000000000000000000000000000000000000000000000000000000081526004016104f990610cd6565b60405180910390fd5b600060015411610547576040517f08c379a000000000000000000000000000000000000000000000000000000000815260040161053e90610d42565b60405180910390fd5b60056000600454815260200190815260200160002060003373ffffffffffffffffffffffffffffffffffffffff1673ffffffffffffffffffffffffffffffffffffffff16815260200190815260200160002060009054906101000a900460ff16156105e7576040517f08c379a00000000000000000000000000000000000000000000000000000000081526004016105de90610dae565b60405180910390fd5b600160056000600454815260200190815260200160002060003373ffffffffffffffffffffffffffffffffffffffff1673ffffffffffffffffffffffffffffffffffffffff16815260200190815260200160002060006101000a81548160ff02191690831515021790555060006001600254036106b757600154905060006001819055503373ffffffffffffffffffffffffffffffffffffffff166108fc829081150290604051600060405180830381858888f193505050501580156106b1573d6000803e3d6000fd5b50610835565b600360009054906101000a900460ff1615610743576002546001546106dc9190610dfd565b905080600160008282546106f09190610e2e565b925050819055503373ffffffffffffffffffffffffffffffffffffffff166108fc829081150290604051600060405180830381858888f1935050505015801561073d573d6000803e3d6000fd5b50610834565b6000600160083360008054906101000a900473ffffffffffffffffffffffffffffffffffffffff1660025460015442604051602001610786959493929190610f00565b60405160208183030381529060405280519060200120600190046107aa9190610f5f565b6107b49190610bc4565b9050600a816001546107c69190610f90565b6107d09190610dfd565b915081600160008282546107e49190610e2e565b925050819055503373ffffffffffffffffffffffffffffffffffffffff166108fc839081150290604051600060405180830381858888f19350505050158015610831573d6000803e3d6000fd5b50505b5b6002600081548092919061084890610fd2565b91905055508091505090565b60056020528160005260406000206020528060005260406000206000915091509054906101000a900460ff1681565b6000819050919050565b61089681610883565b82525050565b60006020820190506108b1600083018461088d565b92915050565b600073ffffffffffffffffffffffffffffffffffffffff82169050919050565b60006108e2826108b7565b9050919050565b6108f2816108d7565b82525050565b600060208201905061090d60008301846108e9565b92915050565b600080fd5b61092181610883565b811461092c57600080fd5b50565b60008135905061093e81610918565b92915050565b60008115159050919050565b61095981610944565b811461096457600080fd5b50565b60008135905061097681610950565b92915050565b6000806040838503121561099357610992610913565b5b60006109a18582860161092f565b92505060206109b285828601610967565b9150509250929050565b6109c581610944565b82525050565b60006020820190506109e060008301846109bc565b92915050565b60006109f1826108b7565b9050919050565b610a01816109e6565b8114610a0c57600080fd5b50565b600081359050610a1e816109f8565b92915050565b60008060408385031215610a3b57610a3a610913565b5b6000610a498582860161092f565b9250506020610a5a85828601610a0f565b9150509250929050565b600082825260208201905092915050565b7f6f6e6c79206f776e65722063616e207769746864726177000000000000000000600082015250565b6000610aab601783610a64565b9150610ab682610a75565b602082019050919050565b60006020820190508181036000830152610ada81610a9e565b9050919050565b7f4e487b7100000000000000000000000000000000000000000000000000000000600052601160045260246000fd5b6000610b1b82610883565b91507fffffffffffffffffffffffffffffffffffffffffffffffffffffffffffffffff8203610b4d57610b4c610ae1565b5b600182019050919050565b7f616d6f756e74206d7573742062652067726561746572207468616e2030000000600082015250565b6000610b8e601d83610a64565b9150610b9982610b58565b602082019050919050565b60006020820190508181036000830152610bbd81610b81565b9050919050565b6000610bcf82610883565b9150610bda83610883565b9250828201905080821115610bf257610bf1610ae1565b5b92915050565b7f6c65667420636f756e74202b206e657720636f756e74206d757374206265206760008201527f726561746572207468616e203000000000000000000000000000000000000000602082015250565b6000610c54602d83610a64565b9150610c5f82610bf8565b604082019050919050565b60006020820190508181036000830152610c8381610c47565b9050919050565b7f4e6f4d6f72655265645061636b65747300000000000000000000000000000000600082015250565b6000610cc0601083610a64565b9150610ccb82610c8a565b602082019050919050565b60006020820190508181036000830152610cef81610cb3565b9050919050565b7f496e73756666696369656e7442616c616e636500000000000000000000000000600082015250565b6000610d2c601383610a64565b9150610d3782610cf6565b602082019050919050565b60006020820190508181036000830152610d5b81610d1f565b9050919050565b7f416c726561647947726162626564000000000000000000000000000000000000600082015250565b6000610d98600e83610a64565b9150610da382610d62565b602082019050919050565b60006020820190508181036000830152610dc781610d8b565b9050919050565b7f4e487b7100000000000000000000000000000000000000000000000000000000600052601260045260246000fd5b6000610e0882610883565b9150610e1383610883565b925082610e2357610e22610dce565b5b828204905092915050565b6000610e3982610883565b9150610e4483610883565b9250828203905081811115610e5c57610e5b610ae1565b5b92915050565b60006c0100000000000000000000000082029050919050565b6000610e8682610e62565b9050919050565b6000610e9882610e7b565b9050919050565b610eb0610eab826109e6565b610e8d565b82525050565b6000610ec182610e7b565b9050919050565b610ed9610ed4826108d7565b610eb6565b82525050565b6000819050919050565b610efa610ef582610883565b610edf565b82525050565b6000610f0c8288610e9f565b601482019150610f1c8287610ec8565b601482019150610f2c8286610ee9565b602082019150610f3c8285610ee9565b602082019150610f4c8284610ee9565b6020820191508190509695505050505050565b6000610f6a82610883565b9150610f7583610883565b925082610f8557610f84610dce565b5b828206905092915050565b6000610f9b82610883565b9150610fa683610883565b9250828202610fb481610883565b91508282048414831517610fcb57610fca610ae1565b5b5092915050565b6000610fdd82610883565b915060008203610ff057610fef610ae1565b5b60018203905091905056fea26469706673582212207a799d0a1caf40bd200c5a6fe3780138e983ceb6fa0ef1d12ab8be33803f52ec64736f6c63430008140033",
  "immutableReferences": {},
  "source": "// SPDX-License-Identifier: GPL-3.0\npragma solidity >=0.7.0 <0.9.0;\n\ncontract RedPacket {\n    // \n    address payable public owner;\n    // \n    uint256 public totalAmount;\n    // \n    uint256 public count;\n    // \n    bool public isEqual;\n    // \n    uint256 public currentRound;\n    // mappinguint256\n    mapping(uint256 => mapping(address => bool)) public isGrabbed;\n\n    constructor(uint256 _count, bool _isEqual) payable {\n        require(msg.value > 0, \"amount must be greater than 0\");\n        owner = payable(msg.sender);\n        count = _count;\n        isEqual = _isEqual;\n        totalAmount = msg.value;\n        currentRound = 1;\n    }\n\n    // \n    function deposit(uint256 _count, bool _isEqual) public payable {\n        require(msg.value > 0, \"amount must be greater than 0\");\n        require(\n            (count + _count) > 0,\n            \"left count + new count must be greater than 0\"\n        );\n        // \n        totalAmount += msg.value;\n        // \n        count += _count;\n        // \n        isEqual = _isEqual;\n    }\n\n    // \n    function withdraw() public {\n        require(msg.sender == owner, \"only owner can withdraw\");\n        payable(owner).transfer(totalAmount);\n        // \n        count = 0;\n        // \n        totalAmount = 0;\n        // \n        currentRound++;\n    }\n\n    // \n    function geBalance() public view returns (uint256) {\n        return address(this).balance;\n    }\n\n    function grabRedPacket() public returns (uint256) {\n        // \n        require(count > 0, \"NoMoreRedPackets\");\n\n        // \n        require(totalAmount > 0, \"InsufficientBalance\");\n\n        // \n        require(!isGrabbed[currentRound][msg.sender], \"AlreadyGrabbed\");\n\n        // \n        isGrabbed[currentRound][msg.sender] = true;\n\n        uint256 amount;\n        // \n        if (count == 1) {\n            amount = totalAmount;\n            totalAmount = 0;\n            payable(msg.sender).transfer(amount);\n        } else {\n            if (isEqual) {\n                // \n                amount = totalAmount / count;\n                totalAmount -= amount;\n                payable(msg.sender).transfer(amount);\n            } else {\n                // \n                //  1-8 \n                uint256 random = (//  hash  uint256\n                uint256(\n                    //  256 \n                    keccak256(\n                        // \n                        abi.encodePacked(\n                            msg.sender,\n                            owner,\n                            count,\n                            totalAmount,\n                            block.timestamp\n                        )\n                    )\n                ) % 8) + 1;\n                amount = (totalAmount * random) / 10;\n                totalAmount -= amount;\n                payable(msg.sender).transfer(amount);\n            }\n        }\n        count--;\n\n        return amount;\n    }\n}\n",
  "sourcePath": "/Users/dengxiongfei/Documents/yideng/solidity-demo/red-packet/contracts/redPacketContract.sol",
  "compiler": {
    "name": "solc",
    "version": "0.8.20+commit.a1b79de6.Emscripten.clang"
  },
  "schemaVersion": "3.4.16",
  "updatedAt": "2025-06-04T05:47:09.256Z",
  "networkType": "ethereum",
  "devdoc": {
    "kind": "dev",
    "methods": {},
    "version": 1
  },
  "userdoc": {
    "kind": "user",
    "methods": {},
    "version": 1
  }
}