{
  "contractName": "InfoContract",
  "abi": [
    {
      "anonymous": false,
      "inputs": [
        {
          "indexed": false,
          "internalType": "string",
          "name": "name",
          "type": "string"
        },
        {
          "indexed": false,
          "internalType": "uint256",
          "name": "age",
          "type": "uint256"
        }
      ],
      "name": "InfoSet",
      "type": "event"
    },
    {
      "inputs": [],
      "name": "age",
      "outputs": [
        {
          "internalType": "uint256",
          "name": "",
          "type": "uint256"
        }
      ],
      "stateMutability": "view",
      "type": "function",
      "constant": true
    },
    {
      "inputs": [],
      "name": "name",
      "outputs": [
        {
          "internalType": "string",
          "name": "",
          "type": "string"
        }
      ],
      "stateMutability": "view",
      "type": "function",
      "constant": true
    },
    {
      "inputs": [],
      "name": "sayHi",
      "outputs": [
        {
          "internalType": "string",
          "name": "",
          "type": "string"
        }
      ],
      "stateMutability": "pure",
      "type": "function",
      "constant": true
    },
    {
      "inputs": [
        {
          "internalType": "string",
          "name": "_name",
          "type": "string"
        },
        {
          "internalType": "uint256",
          "name": "_age",
          "type": "uint256"
        }
      ],
      "name": "setInfo",
      "outputs": [],
      "stateMutability": "nonpayable",
      "type": "function"
    },
    {
      "inputs": [],
      "name": "getInfo",
      "outputs": [
        {
          "internalType": "string",
          "name": "",
          "type": "string"
        },
        {
          "internalType": "uint256",
          "name": "",
          "type": "uint256"
        }
      ],
      "stateMutability": "view",
      "type": "function",
      "constant": true
    }
  ],
  "bytecode": "0x608060405234801561001057600080fd5b506108d0806100206000396000f3fe608060405234801561001057600080fd5b5060043610610074576000357c01000000000000000000000000000000000000000000000000000000009004806306fdde03146100795780630c49c36c14610097578063262a9dff146100b55780635a9b0b89146100d35780638262963b146100f2575b600080fd5b61008161010e565b60405161008e919061035f565b60405180910390f35b61009f61019c565b6040516100ac919061035f565b60405180910390f35b6100bd6101d9565b6040516100ca919061039a565b60405180910390f35b6100db6101df565b6040516100e99291906103b5565b60405180910390f35b61010c6004803603810190610107919061055a565b61027b565b005b6000805461011b906105e5565b80601f0160208091040260200160405190810160405280929190818152602001828054610147906105e5565b80156101945780601f1061016957610100808354040283529160200191610194565b820191906000526020600020905b81548152906001019060200180831161017757829003601f168201915b505050505081565b60606040518060400160405280600d81526020017f48656c6c6f2c20576f726c642100000000000000000000000000000000000000815250905090565b60015481565b60606000806001548180546101f3906105e5565b80601f016020809104026020016040519081016040528092919081815260200182805461021f906105e5565b801561026c5780601f106102415761010080835404028352916020019161026c565b820191906000526020600020905b81548152906001019060200180831161024f57829003601f168201915b50505050509150915091509091565b816000908161028a91906107c8565b50806001819055507fed2aad2d545239f01c25f5517559c4977c7ada72460ddda3b331bfd303cf19d482826040516102c39291906103b5565b60405180910390a15050565b600081519050919050565b600082825260208201905092915050565b60005b838110156103095780820151818401526020810190506102ee565b60008484015250505050565b6000601f19601f8301169050919050565b6000610331826102cf565b61033b81856102da565b935061034b8185602086016102eb565b61035481610315565b840191505092915050565b600060208201905081810360008301526103798184610326565b905092915050565b6000819050919050565b61039481610381565b82525050565b60006020820190506103af600083018461038b565b92915050565b600060408201905081810360008301526103cf8185610326565b90506103de602083018461038b565b9392505050565b6000604051905090565b600080fd5b600080fd5b600080fd5b600080fd5b7f4e487b7100000000000000000000000000000000000000000000000000000000600052604160045260246000fd5b61043b82610315565b810181811067ffffffffffffffff8211171561045a57610459610403565b5b80604052505050565b600061046d6103e5565b90506104798282610432565b919050565b600067ffffffffffffffff82111561049957610498610403565b5b6104a282610315565b9050602081019050919050565b82818337600083830152505050565b60006104d16104cc8461047e565b610463565b9050828152602081018484840111156104ed576104ec6103fe565b5b6104f88482856104af565b509392505050565b600082601f830112610515576105146103f9565b5b81356105258482602086016104be565b91505092915050565b61053781610381565b811461054257600080fd5b50565b6000813590506105548161052e565b92915050565b60008060408385031215610571576105706103ef565b5b600083013567ffffffffffffffff81111561058f5761058e6103f4565b5b61059b85828601610500565b92505060206105ac85828601610545565b9150509250929050565b7f4e487b7100000000000000000000000000000000000000000000000000000000600052602260045260246000fd5b600060028204905060018216806105fd57607f821691505b6020821081036106105761060f6105b6565b5b50919050565b60008190508160005260206000209050919050565b60006020601f8301049050919050565b60008160020a8302905092915050565b60006008830261067b7fffffffffffffffffffffffffffffffffffffffffffffffffffffffffffffffff8261063b565b610685868361063b565b95508019841693508086168417925050509392505050565b6000819050919050565b60006106c26106bd6106b884610381565b61069d565b610381565b9050919050565b6000819050919050565b6106dc836106a7565b6106f06106e8826106c9565b84845461064b565b825550505050565b600090565b6107056106f8565b6107108184846106d3565b505050565b5b81811015610734576107296000826106fd565b600181019050610716565b5050565b601f8211156107795761074a81610616565b6107538461062b565b81016020851015610762578190505b61077661076e8561062b565b830182610715565b50505b505050565b60008160020a8304905092915050565b600061079f6000198460080261077e565b1980831691505092915050565b60006107b8838361078e565b9150826002028217905092915050565b6107d1826102cf565b67ffffffffffffffff8111156107ea576107e9610403565b5b6107f482546105e5565b6107ff828285610738565b600060209050601f8311600181146108325760008415610820578287015190505b61082a85826107ac565b865550610892565b601f19841661084086610616565b60005b8281101561086857848901518255600182019150602085019450602081019050610843565b868310156108855784890151610881601f89168261078e565b8355505b6001600288020188555050505b50505050505056fea2646970667358221220f88e0d1ff547ebb092cdfa3625b285a7c77885d5f34fd38d6cfdf4e6fa76995b64736f6c63430008140033",
  "immutableReferences": {},
  "source": "// \n// SPDX-License-Identifier: GPL-3.0\n\npragma solidity >=0.7.0 <0.9.0;\n\ncontract InfoContract {\n    string public name;\n    uint256 public age;\n\n    function sayHi() public pure returns (string memory) {\n        return \"Hello, World!\";\n    }\n\n    event InfoSet(string name, uint256 age);\n\n    function setInfo(string memory _name, uint256 _age) public {\n        name = _name;\n        age = _age;\n        emit InfoSet(_name, _age);\n    }\n\n    function getInfo() public view returns (string memory, uint256) {\n        return (name, age);\n    }\n}\n",
  "sourcePath": "/Users/dengxiongfei/Documents/yideng/solidity-demo/info-contract/contracts/infoContract.sol",
  "compiler": {
    "name": "solc",
    "version": "0.8.20+commit.a1b79de6.Emscripten.clang"
  },
  "schemaVersion": "3.4.16",
  "updatedAt": "2025-06-03T05:33:38.085Z",
  "networkType": "ethereum",
  "devdoc": {
    "kind": "dev",
    "methods": {},
    "version": 1
  },
  "userdoc": {
    "kind": "user",
    "methods": {},
    "version": 1
  }
}