{
  "contractName": "YDCollege",
  "abi": [
    {
      "inputs": [
        {
          "internalType": "address",
          "name": "_tokenContract",
          "type": "address"
        }
      ],
      "stateMutability": "nonpayable",
      "type": "constructor"
    },
    {
      "anonymous": false,
      "inputs": [
        {
          "indexed": true,
          "internalType": "uint256",
          "name": "lessonId",
          "type": "uint256"
        },
        {
          "indexed": false,
          "internalType": "string",
          "name": "name",
          "type": "string"
        },
        {
          "indexed": false,
          "internalType": "uint256",
          "name": "price",
          "type": "uint256"
        }
      ],
      "name": "LessonCreated",
      "type": "event"
    },
    {
      "anonymous": false,
      "inputs": [
        {
          "indexed": true,
          "internalType": "uint256",
          "name": "lessonId",
          "type": "uint256"
        }
      ],
      "name": "LessonDeleted",
      "type": "event"
    },
    {
      "anonymous": false,
      "inputs": [
        {
          "indexed": true,
          "internalType": "address",
          "name": "user",
          "type": "address"
        },
        {
          "indexed": true,
          "internalType": "uint256",
          "name": "lessonId",
          "type": "uint256"
        }
      ],
      "name": "LessonPurchased",
      "type": "event"
    },
    {
      "anonymous": false,
      "inputs": [
        {
          "indexed": true,
          "internalType": "uint256",
          "name": "lessonId",
          "type": "uint256"
        },
        {
          "indexed": false,
          "internalType": "string",
          "name": "name",
          "type": "string"
        },
        {
          "indexed": false,
          "internalType": "uint256",
          "name": "price",
          "type": "uint256"
        }
      ],
      "name": "LessonUpdated",
      "type": "event"
    },
    {
      "anonymous": false,
      "inputs": [
        {
          "indexed": true,
          "internalType": "address",
          "name": "previousOwner",
          "type": "address"
        },
        {
          "indexed": true,
          "internalType": "address",
          "name": "newOwner",
          "type": "address"
        }
      ],
      "name": "OwnershipTransferred",
      "type": "event"
    },
    {
      "inputs": [],
      "name": "lessonCount",
      "outputs": [
        {
          "internalType": "uint256",
          "name": "",
          "type": "uint256"
        }
      ],
      "stateMutability": "view",
      "type": "function",
      "constant": true
    },
    {
      "inputs": [
        {
          "internalType": "uint256",
          "name": "",
          "type": "uint256"
        }
      ],
      "name": "lessons",
      "outputs": [
        {
          "internalType": "uint256",
          "name": "id",
          "type": "uint256"
        },
        {
          "internalType": "string",
          "name": "name",
          "type": "string"
        },
        {
          "internalType": "string",
          "name": "description",
          "type": "string"
        },
        {
          "internalType": "uint256",
          "name": "price",
          "type": "uint256"
        },
        {
          "internalType": "string",
          "name": "link",
          "type": "string"
        },
        {
          "internalType": "string",
          "name": "cover",
          "type": "string"
        },
        {
          "internalType": "bool",
          "name": "isActive",
          "type": "bool"
        }
      ],
      "stateMutability": "view",
      "type": "function",
      "constant": true
    },
    {
      "inputs": [],
      "name": "owner",
      "outputs": [
        {
          "internalType": "address",
          "name": "",
          "type": "address"
        }
      ],
      "stateMutability": "view",
      "type": "function",
      "constant": true
    },
    {
      "inputs": [],
      "name": "renounceOwnership",
      "outputs": [],
      "stateMutability": "nonpayable",
      "type": "function"
    },
    {
      "inputs": [],
      "name": "tokenContract",
      "outputs": [
        {
          "internalType": "contract YDLessonToken",
          "name": "",
          "type": "address"
        }
      ],
      "stateMutability": "view",
      "type": "function",
      "constant": true
    },
    {
      "inputs": [
        {
          "internalType": "address",
          "name": "newOwner",
          "type": "address"
        }
      ],
      "name": "transferOwnership",
      "outputs": [],
      "stateMutability": "nonpayable",
      "type": "function"
    },
    {
      "inputs": [
        {
          "internalType": "address",
          "name": "",
          "type": "address"
        },
        {
          "internalType": "uint256",
          "name": "",
          "type": "uint256"
        }
      ],
      "name": "userPurchases",
      "outputs": [
        {
          "internalType": "bool",
          "name": "",
          "type": "bool"
        }
      ],
      "stateMutability": "view",
      "type": "function",
      "constant": true
    },
    {
      "inputs": [
        {
          "internalType": "string",
          "name": "_name",
          "type": "string"
        },
        {
          "internalType": "string",
          "name": "_description",
          "type": "string"
        },
        {
          "internalType": "uint256",
          "name": "_price",
          "type": "uint256"
        },
        {
          "internalType": "string",
          "name": "_link",
          "type": "string"
        },
        {
          "internalType": "string",
          "name": "_cover",
          "type": "string"
        }
      ],
      "name": "addLesson",
      "outputs": [],
      "stateMutability": "nonpayable",
      "type": "function"
    },
    {
      "inputs": [
        {
          "internalType": "uint256",
          "name": "_lessonId",
          "type": "uint256"
        },
        {
          "internalType": "string",
          "name": "_name",
          "type": "string"
        },
        {
          "internalType": "string",
          "name": "_description",
          "type": "string"
        },
        {
          "internalType": "uint256",
          "name": "_price",
          "type": "uint256"
        },
        {
          "internalType": "string",
          "name": "_link",
          "type": "string"
        },
        {
          "internalType": "string",
          "name": "_cover",
          "type": "string"
        }
      ],
      "name": "updateLesson",
      "outputs": [],
      "stateMutability": "nonpayable",
      "type": "function"
    },
    {
      "inputs": [
        {
          "internalType": "uint256",
          "name": "_lessonId",
          "type": "uint256"
        }
      ],
      "name": "deleteLesson",
      "outputs": [],
      "stateMutability": "nonpayable",
      "type": "function"
    },
    {
      "inputs": [
        {
          "internalType": "address",
          "name": "_user",
          "type": "address"
        }
      ],
      "name": "getActiveLessons",
      "outputs": [
        {
          "components": [
            {
              "internalType": "uint256",
              "name": "id",
              "type": "uint256"
            },
            {
              "internalType": "string",
              "name": "name",
              "type": "string"
            },
            {
              "internalType": "string",
              "name": "description",
              "type": "string"
            },
            {
              "internalType": "uint256",
              "name": "price",
              "type": "uint256"
            },
            {
              "internalType": "string",
              "name": "cover",
              "type": "string"
            },
            {
              "internalType": "bool",
              "name": "purchased",
              "type": "bool"
            }
          ],
          "internalType": "struct LessonInfo[]",
          "name": "",
          "type": "tuple[]"
        }
      ],
      "stateMutability": "view",
      "type": "function",
      "constant": true
    },
    {
      "inputs": [
        {
          "internalType": "uint256",
          "name": "_lessonId",
          "type": "uint256"
        }
      ],
      "name": "purchaseLesson",
      "outputs": [],
      "stateMutability": "nonpayable",
      "type": "function"
    },
    {
      "inputs": [
        {
          "internalType": "address",
          "name": "_user",
          "type": "address"
        }
      ],
      "name": "getUserPurchasedLessons",
      "outputs": [
        {
          "components": [
            {
              "internalType": "uint256",
              "name": "id",
              "type": "uint256"
            },
            {
              "internalType": "string",
              "name": "name",
              "type": "string"
            },
            {
              "internalType": "string",
              "name": "description",
              "type": "string"
            },
            {
              "internalType": "uint256",
              "name": "price",
              "type": "uint256"
            },
            {
              "internalType": "string",
              "name": "link",
              "type": "string"
            },
            {
              "internalType": "string",
              "name": "cover",
              "type": "string"
            },
            {
              "internalType": "bool",
              "name": "isActive",
              "type": "bool"
            }
          ],
          "internalType": "struct Lesson[]",
          "name": "",
          "type": "tuple[]"
        }
      ],
      "stateMutability": "view",
      "type": "function",
      "constant": true
    },
    {
      "inputs": [],
      "name": "withdrawYDTokens",
      "outputs": [],
      "stateMutability": "nonpayable",
      "type": "function"
    },
    {
      "inputs": [
        {
          "internalType": "uint256",
          "name": "_lessonId",
          "type": "uint256"
        }
      ],
      "name": "getLesson",
      "outputs": [
        {
          "components": [
            {
              "internalType": "uint256",
              "name": "id",
              "type": "uint256"
            },
            {
              "internalType": "string",
              "name": "name",
              "type": "string"
            },
            {
              "internalType": "string",
              "name": "description",
              "type": "string"
            },
            {
              "internalType": "uint256",
              "name": "price",
              "type": "uint256"
            },
            {
              "internalType": "string",
              "name": "link",
              "type": "string"
            },
            {
              "internalType": "string",
              "name": "cover",
              "type": "string"
            },
            {
              "internalType": "bool",
              "name": "isActive",
              "type": "bool"
            }
          ],
          "internalType": "struct Lesson",
          "name": "",
          "type": "tuple"
        }
      ],
      "stateMutability": "view",
      "type": "function",
      "constant": true
    }
  ],
  "bytecode": "0x60806040523480156200001157600080fd5b5060405162003386380380620033868339818101604052810190620000379190620001e7565b6200006962000054620000b1640100000000026401000000009004565b620000b9640100000000026401000000009004565b80600460006101000a81548173ffffffffffffffffffffffffffffffffffffffff021916908373ffffffffffffffffffffffffffffffffffffffff1602179055505062000219565b600033905090565b60008060009054906101000a900473ffffffffffffffffffffffffffffffffffffffff169050816000806101000a81548173ffffffffffffffffffffffffffffffffffffffff021916908373ffffffffffffffffffffffffffffffffffffffff1602179055508173ffffffffffffffffffffffffffffffffffffffff168173ffffffffffffffffffffffffffffffffffffffff167f8be0079c531659141344cd1fd0a4f28419497f9722a3daafe3b4186f6b6457e060405160405180910390a35050565b600080fd5b600073ffffffffffffffffffffffffffffffffffffffff82169050919050565b6000620001af8262000182565b9050919050565b620001c181620001a2565b8114620001cd57600080fd5b50565b600081519050620001e181620001b6565b92915050565b6000602082840312156200020057620001ff6200017d565b5b60006200021084828501620001d0565b91505092915050565b61315d80620002296000396000f3fe608060405234801561001057600080fd5b5060043610610112576000357c0100000000000000000000000000000000000000000000000000000000900480638da5cb5b116100b4578063e1d1a84111610083578063e1d1a8411461027b578063f2fde38b146102b1578063f909a639146102cd578063ff568015146102e957610112565b80638da5cb5b146101f35780638f9012a514610211578063cbfe253f1461021b578063cf2c03341461024b57610112565b806332508fe8116100f057806332508fe81461017f5780634a1d4a09146101af57806355a373d6146101cb578063715018a6146101e957610112565b80630cf408a91461011757806319fc5f33146101335780631e10ea851461014f575b600080fd5b610131600480360381019061012c9190611e0b565b610307565b005b61014d60048036038101906101489190611f7e565b610422565b005b610169600480360381019061016491906120d9565b610568565b6040516101769190612308565b60405180910390f35b610199600480360381019061019491906120d9565b6109db565b6040516101a6919061249d565b60405180910390f35b6101c960048036038101906101c49190611e0b565b610e21565b005b6101d3611236565b6040516101e0919061251e565b60405180910390f35b6101f161125c565b005b6101fb611270565b6040516102089190612548565b60405180910390f35b610219611299565b005b61023560048036038101906102309190611e0b565b6114a5565b6040516102429190612614565b60405180910390f35b61026560048036038101906102609190612636565b61179a565b6040516102729190612685565b60405180910390f35b61029560048036038101906102909190611e0b565b6117c9565b6040516102a897969594939291906126f9565b60405180910390f35b6102cb60048036038101906102c691906120d9565b611a38565b005b6102e760048036038101906102e29190612784565b611abb565b005b6102f1611bfa565b6040516102fe919061286f565b60405180910390f35b61030f611c00565b60025481111580156103215750600081115b610360576040517f08c379a0000000000000000000000000000000000000000000000000000000008152600401610357906128d6565b60405180910390fd5b6001600082815260200190815260200160002060060160009054906101000a900460ff166103c3576040517f08c379a00000000000000000000000000000000000000000000000000000000081526004016103ba90612942565b60405180910390fd5b60006001600083815260200190815260200160002060060160006101000a81548160ff021916908315150217905550807fc6816a5ab5fb69bc519a49b23ac8a20cd91df05d138bd533cebb5f45a6b0860860405160405180910390a250565b61042a611c00565b600254861115801561043c5750600086115b61047b576040517f08c379a0000000000000000000000000000000000000000000000000000000008152600401610472906128d6565b60405180910390fd5b8460016000888152602001908152602001600020600101908161049e9190612b6a565b50836001600088815260200190815260200160002060020190816104c29190612b6a565b50826001600088815260200190815260200160002060030181905550816001600088815260200190815260200160002060040190816105019190612b6a565b50806001600088815260200190815260200160002060050190816105259190612b6a565b50857feffdc9ff70adca2a079c2e5778bd992db5f7298b8c72429857a29376d81873bd8685604051610558929190612c3c565b60405180910390a2505050505050565b6060600080600190505b60025481116105c6576001600082815260200190815260200160002060060160009054906101000a900460ff16156105b35781806105af90612c9b565b9250505b80806105be90612c9b565b915050610572565b5060008167ffffffffffffffff8111156105e3576105e2611e53565b5b60405190808252806020026020018201604052801561061c57816020015b610609611d4a565b8152602001906001900390816106015790505b509050600080600190505b60025481116109cf576001600082815260200190815260200160002060060160009054906101000a900460ff16156109bc576000600160008381526020019081526020016000206040518060e00160405290816000820154815260200160018201805461069390612991565b80601f01602080910402602001604051908101604052809291908181526020018280546106bf90612991565b801561070c5780601f106106e15761010080835404028352916020019161070c565b820191906000526020600020905b8154815290600101906020018083116106ef57829003601f168201915b5050505050815260200160028201805461072590612991565b80601f016020809104026020016040519081016040528092919081815260200182805461075190612991565b801561079e5780601f106107735761010080835404028352916020019161079e565b820191906000526020600020905b81548152906001019060200180831161078157829003601f168201915b50505050508152602001600382015481526020016004820180546107c190612991565b80601f01602080910402602001604051908101604052809291908181526020018280546107ed90612991565b801561083a5780601f1061080f5761010080835404028352916020019161083a565b820191906000526020600020905b81548152906001019060200180831161081d57829003601f168201915b5050505050815260200160058201805461085390612991565b80601f016020809104026020016040519081016040528092919081815260200182805461087f90612991565b80156108cc5780601f106108a1576101008083540402835291602001916108cc565b820191906000526020600020905b8154815290600101906020018083116108af57829003601f168201915b505050505081526020016006820160009054906101000a900460ff16151515158152505090506040518060c001604052808381526020018260200151815260200182604001518152602001826060015181526020018260a001518152602001600360008a73ffffffffffffffffffffffffffffffffffffffff1673ffffffffffffffffffffffffffffffffffffffff168152602001908152602001600020600085815260200190815260200160002060009054906101000a900460ff1615158152508484815181106109a1576109a0612ce3565b5b602002602001018190525082806109b790612c9b565b935050505b80806109c790612c9b565b915050610627565b50819350505050919050565b6060600080600190505b6002548111610a7357600360008573ffffffffffffffffffffffffffffffffffffffff1673ffffffffffffffffffffffffffffffffffffffff168152602001908152602001600020600082815260200190815260200160002060009054906101000a900460ff1615610a60578180610a5c90612c9b565b9250505b8080610a6b90612c9b565b9150506109e5565b5060008167ffffffffffffffff811115610a9057610a8f611e53565b5b604051908082528060200260200182016040528015610ac957816020015b610ab6611d82565b815260200190600190039081610aae5790505b509050600080600190505b6002548111610e1557600360008773ffffffffffffffffffffffffffffffffffffffff1673ffffffffffffffffffffffffffffffffffffffff168152602001908152602001600020600082815260200190815260200160002060009054906101000a900460ff1615610e0257600160008281526020019081526020016000206040518060e001604052908160008201548152602001600182018054610b7890612991565b80601f0160208091040260200160405190810160405280929190818152602001828054610ba490612991565b8015610bf15780601f10610bc657610100808354040283529160200191610bf1565b820191906000526020600020905b815481529060010190602001808311610bd457829003601f168201915b50505050508152602001600282018054610c0a90612991565b80601f0160208091040260200160405190810160405280929190818152602001828054610c3690612991565b8015610c835780601f10610c5857610100808354040283529160200191610c83565b820191906000526020600020905b815481529060010190602001808311610c6657829003601f168201915b5050505050815260200160038201548152602001600482018054610ca690612991565b80601f0160208091040260200160405190810160405280929190818152602001828054610cd290612991565b8015610d1f5780601f10610cf457610100808354040283529160200191610d1f565b820191906000526020600020905b815481529060010190602001808311610d0257829003601f168201915b50505050508152602001600582018054610d3890612991565b80601f0160208091040260200160405190810160405280929190818152602001828054610d6490612991565b8015610db15780601f10610d8657610100808354040283529160200191610db1565b820191906000526020600020905b815481529060010190602001808311610d9457829003601f168201915b505050505081526020016006820160009054906101000a900460ff161515151581525050838381518110610de857610de7612ce3565b5b60200260200101819052508180610dfe90612c9b565b9250505b8080610e0d90612c9b565b915050610ad4565b50819350505050919050565b6002548111158015610e335750600081115b610e72576040517f08c379a0000000000000000000000000000000000000000000000000000000008152600401610e69906128d6565b60405180910390fd5b6001600082815260200190815260200160002060060160009054906101000a900460ff16610ed5576040517f08c379a0000000000000000000000000000000000000000000000000000000008152600401610ecc90612d5e565b60405180910390fd5b600360003373ffffffffffffffffffffffffffffffffffffffff1673ffffffffffffffffffffffffffffffffffffffff168152602001908152602001600020600082815260200190815260200160002060009054906101000a900460ff1615610f73576040517f08c379a0000000000000000000000000000000000000000000000000000000008152600401610f6a90612dca565b60405180910390fd5b60006001600083815260200190815260200160002060030154905080600460009054906101000a900473ffffffffffffffffffffffffffffffffffffffff1673ffffffffffffffffffffffffffffffffffffffff166370a08231336040518263ffffffff167c01000000000000000000000000000000000000000000000000000000000281526004016110069190612548565b602060405180830381865afa158015611023573d6000803e3d6000fd5b505050506040513d601f19601f820116820180604052508101906110479190612dff565b1015611088576040517f08c379a000000000000000000000000000000000000000000000000000000000815260040161107f90612e78565b60405180910390fd5b600460009054906101000a900473ffffffffffffffffffffffffffffffffffffffff1673ffffffffffffffffffffffffffffffffffffffff166323b872dd3330846040518463ffffffff167c010000000000000000000000000000000000000000000000000000000002815260040161110393929190612e98565b6020604051808303816000875af1158015611122573d6000803e3d6000fd5b505050506040513d601f19601f820116820180604052508101906111469190612efb565b611185576040517f08c379a000000000000000000000000000000000000000000000000000000000815260040161117c90612f74565b60405180910390fd5b6001600360003373ffffffffffffffffffffffffffffffffffffffff1673ffffffffffffffffffffffffffffffffffffffff168152602001908152602001600020600084815260200190815260200160002060006101000a81548160ff021916908315150217905550813373ffffffffffffffffffffffffffffffffffffffff167f39dc0b24d128e105917254e44a6dcf36e529566b87836b12056ae379e206628a60405160405180910390a35050565b600460009054906101000a900473ffffffffffffffffffffffffffffffffffffffff1681565b611264611c00565b61126e6000611c7e565b565b60008060009054906101000a900473ffffffffffffffffffffffffffffffffffffffff16905090565b6112a1611c00565b6000600460009054906101000a900473ffffffffffffffffffffffffffffffffffffffff1673ffffffffffffffffffffffffffffffffffffffff166370a08231306040518263ffffffff167c010000000000000000000000000000000000000000000000000000000002815260040161131a9190612548565b602060405180830381865afa158015611337573d6000803e3d6000fd5b505050506040513d601f19601f8201168201806040525081019061135b9190612dff565b9050600081116113a0576040517f08c379a000000000000000000000000000000000000000000000000000000000815260040161139790612fe0565b60405180910390fd5b600460009054906101000a900473ffffffffffffffffffffffffffffffffffffffff1673ffffffffffffffffffffffffffffffffffffffff1663a9059cbb6113e6611270565b836040518363ffffffff167c0100000000000000000000000000000000000000000000000000000000028152600401611420929190613000565b6020604051808303816000875af115801561143f573d6000803e3d6000fd5b505050506040513d601f19601f820116820180604052508101906114639190612efb565b6114a2576040517f08c379a000000000000000000000000000000000000000000000000000000000815260040161149990612f74565b60405180910390fd5b50565b6114ad611d82565b60025482111580156114bf5750600082115b6114fe576040517f08c379a00000000000000000000000000000000000000000000000000000000081526004016114f5906128d6565b60405180910390fd5b600160008381526020019081526020016000206040518060e00160405290816000820154815260200160018201805461153690612991565b80601f016020809104026020016040519081016040528092919081815260200182805461156290612991565b80156115af5780601f10611584576101008083540402835291602001916115af565b820191906000526020600020905b81548152906001019060200180831161159257829003601f168201915b505050505081526020016002820180546115c890612991565b80601f01602080910402602001604051908101604052809291908181526020018280546115f490612991565b80156116415780601f1061161657610100808354040283529160200191611641565b820191906000526020600020905b81548152906001019060200180831161162457829003601f168201915b505050505081526020016003820154815260200160048201805461166490612991565b80601f016020809104026020016040519081016040528092919081815260200182805461169090612991565b80156116dd5780601f106116b2576101008083540402835291602001916116dd565b820191906000526020600020905b8154815290600101906020018083116116c057829003601f168201915b505050505081526020016005820180546116f690612991565b80601f016020809104026020016040519081016040528092919081815260200182805461172290612991565b801561176f5780601f106117445761010080835404028352916020019161176f565b820191906000526020600020905b81548152906001019060200180831161175257829003601f168201915b505050505081526020016006820160009054906101000a900460ff1615151515815250509050919050565b60036020528160005260406000206020528060005260406000206000915091509054906101000a900460ff1681565b60016020528060005260406000206000915090508060000154908060010180546117f290612991565b80601f016020809104026020016040519081016040528092919081815260200182805461181e90612991565b801561186b5780601f106118405761010080835404028352916020019161186b565b820191906000526020600020905b81548152906001019060200180831161184e57829003601f168201915b50505050509080600201805461188090612991565b80601f01602080910402602001604051908101604052809291908181526020018280546118ac90612991565b80156118f95780601f106118ce576101008083540402835291602001916118f9565b820191906000526020600020905b8154815290600101906020018083116118dc57829003601f168201915b50505050509080600301549080600401805461191490612991565b80601f016020809104026020016040519081016040528092919081815260200182805461194090612991565b801561198d5780601f106119625761010080835404028352916020019161198d565b820191906000526020600020905b81548152906001019060200180831161197057829003601f168201915b5050505050908060050180546119a290612991565b80601f01602080910402602001604051908101604052809291908181526020018280546119ce90612991565b8015611a1b5780601f106119f057610100808354040283529160200191611a1b565b820191906000526020600020905b8154815290600101906020018083116119fe57829003601f168201915b5050505050908060060160009054906101000a900460ff16905087565b611a40611c00565b600073ffffffffffffffffffffffffffffffffffffffff168173ffffffffffffffffffffffffffffffffffffffff1603611aaf576040517f08c379a0000000000000000000000000000000000000000000000000000000008152600401611aa69061309b565b60405180910390fd5b611ab881611c7e565b50565b611ac3611c00565b60026000815480929190611ad690612c9b565b91905055506040518060e00160405280600254815260200186815260200185815260200184815260200183815260200182815260200160011515815250600160006002548152602001908152602001600020600082015181600001556020820151816001019081611b479190612b6a565b506040820151816002019081611b5d9190612b6a565b50606082015181600301556080820151816004019081611b7d9190612b6a565b5060a0820151816005019081611b939190612b6a565b5060c08201518160060160006101000a81548160ff0219169083151502179055509050506002547fcc5cc7488dbed206944215130f61da9f763464489fae73f8ea996698d149d3478685604051611beb929190612c3c565b60405180910390a25050505050565b60025481565b611c08611d42565b73ffffffffffffffffffffffffffffffffffffffff16611c26611270565b73ffffffffffffffffffffffffffffffffffffffff1614611c7c576040517f08c379a0000000000000000000000000000000000000000000000000000000008152600401611c7390613107565b60405180910390fd5b565b60008060009054906101000a900473ffffffffffffffffffffffffffffffffffffffff169050816000806101000a81548173ffffffffffffffffffffffffffffffffffffffff021916908373ffffffffffffffffffffffffffffffffffffffff1602179055508173ffffffffffffffffffffffffffffffffffffffff168173ffffffffffffffffffffffffffffffffffffffff167f8be0079c531659141344cd1fd0a4f28419497f9722a3daafe3b4186f6b6457e060405160405180910390a35050565b600033905090565b6040518060c0016040528060008152602001606081526020016060815260200160008152602001606081526020016000151581525090565b6040518060e001604052806000815260200160608152602001606081526020016000815260200160608152602001606081526020016000151581525090565b6000604051905090565b600080fd5b600080fd5b6000819050919050565b611de881611dd5565b8114611df357600080fd5b50565b600081359050611e0581611ddf565b92915050565b600060208284031215611e2157611e20611dcb565b5b6000611e2f84828501611df6565b91505092915050565b600080fd5b600080fd5b6000601f19601f8301169050919050565b7f4e487b7100000000000000000000000000000000000000000000000000000000600052604160045260246000fd5b611e8b82611e42565b810181811067ffffffffffffffff82111715611eaa57611ea9611e53565b5b80604052505050565b6000611ebd611dc1565b9050611ec98282611e82565b919050565b600067ffffffffffffffff821115611ee957611ee8611e53565b5b611ef282611e42565b9050602081019050919050565b82818337600083830152505050565b6000611f21611f1c84611ece565b611eb3565b905082815260208101848484011115611f3d57611f3c611e3d565b5b611f48848285611eff565b509392505050565b600082601f830112611f6557611f64611e38565b5b8135611f75848260208601611f0e565b91505092915050565b60008060008060008060c08789031215611f9b57611f9a611dcb565b5b6000611fa989828a01611df6565b965050602087013567ffffffffffffffff811115611fca57611fc9611dd0565b5b611fd689828a01611f50565b955050604087013567ffffffffffffffff811115611ff757611ff6611dd0565b5b61200389828a01611f50565b945050606061201489828a01611df6565b935050608087013567ffffffffffffffff81111561203557612034611dd0565b5b61204189828a01611f50565b92505060a087013567ffffffffffffffff81111561206257612061611dd0565b5b61206e89828a01611f50565b9150509295509295509295565b600073ffffffffffffffffffffffffffffffffffffffff82169050919050565b60006120a68261207b565b9050919050565b6120b68161209b565b81146120c157600080fd5b50565b6000813590506120d3816120ad565b92915050565b6000602082840312156120ef576120ee611dcb565b5b60006120fd848285016120c4565b91505092915050565b600081519050919050565b600082825260208201905092915050565b6000819050602082019050919050565b61213b81611dd5565b82525050565b600081519050919050565b600082825260208201905092915050565b60005b8381101561217b578082015181840152602081019050612160565b60008484015250505050565b600061219282612141565b61219c818561214c565b93506121ac81856020860161215d565b6121b581611e42565b840191505092915050565b60008115159050919050565b6121d5816121c0565b82525050565b600060c0830160008301516121f36000860182612132565b506020830151848203602086015261220b8282612187565b915050604083015184820360408601526122258282612187565b915050606083015161223a6060860182612132565b50608083015184820360808601526122528282612187565b91505060a083015161226760a08601826121cc565b508091505092915050565b600061227e83836121db565b905092915050565b6000602082019050919050565b600061229e82612106565b6122a88185612111565b9350836020820285016122ba85612122565b8060005b858110156122f657848403895281516122d78582612272565b94506122e283612286565b925060208a019950506001810190506122be565b50829750879550505050505092915050565b600060208201905081810360008301526123228184612293565b905092915050565b600081519050919050565b600082825260208201905092915050565b6000819050602082019050919050565b600060e08301600083015161236e6000860182612132565b50602083015184820360208601526123868282612187565b915050604083015184820360408601526123a08282612187565b91505060608301516123b56060860182612132565b50608083015184820360808601526123cd8282612187565b91505060a083015184820360a08601526123e78282612187565b91505060c08301516123fc60c08601826121cc565b508091505092915050565b60006124138383612356565b905092915050565b6000602082019050919050565b60006124338261232a565b61243d8185612335565b93508360208202850161244f85612346565b8060005b8581101561248b578484038952815161246c8582612407565b94506124778361241b565b925060208a01995050600181019050612453565b50829750879550505050505092915050565b600060208201905081810360008301526124b78184612428565b905092915050565b6000819050919050565b60006124e46124df6124da8461207b565b6124bf565b61207b565b9050919050565b60006124f6826124c9565b9050919050565b6000612508826124eb565b9050919050565b612518816124fd565b82525050565b6000602082019050612533600083018461250f565b92915050565b6125428161209b565b82525050565b600060208201905061255d6000830184612539565b92915050565b600060e08301600083015161257b6000860182612132565b50602083015184820360208601526125938282612187565b915050604083015184820360408601526125ad8282612187565b91505060608301516125c26060860182612132565b50608083015184820360808601526125da8282612187565b91505060a083015184820360a08601526125f48282612187565b91505060c083015161260960c08601826121cc565b508091505092915050565b6000602082019050818103600083015261262e8184612563565b905092915050565b6000806040838503121561264d5761264c611dcb565b5b600061265b858286016120c4565b925050602061266c85828601611df6565b9150509250929050565b61267f816121c0565b82525050565b600060208201905061269a6000830184612676565b92915050565b6126a981611dd5565b82525050565b600082825260208201905092915050565b60006126cb82612141565b6126d581856126af565b93506126e581856020860161215d565b6126ee81611e42565b840191505092915050565b600060e08201905061270e600083018a6126a0565b818103602083015261272081896126c0565b9050818103604083015261273481886126c0565b905061274360608301876126a0565b818103608083015261275581866126c0565b905081810360a083015261276981856126c0565b905061277860c0830184612676565b98975050505050505050565b600080600080600060a086880312156127a05761279f611dcb565b5b600086013567ffffffffffffffff8111156127be576127bd611dd0565b5b6127ca88828901611f50565b955050602086013567ffffffffffffffff8111156127eb576127ea611dd0565b5b6127f788828901611f50565b945050604061280888828901611df6565b935050606086013567ffffffffffffffff81111561282957612828611dd0565b5b61283588828901611f50565b925050608086013567ffffffffffffffff81111561285657612855611dd0565b5b61286288828901611f50565b9150509295509295909350565b600060208201905061288460008301846126a0565b92915050565b7f496e76616c6964206c6573736f6e204944000000000000000000000000000000600082015250565b60006128c06011836126af565b91506128cb8261288a565b602082019050919050565b600060208201905081810360008301526128ef816128b3565b9050919050565b7f4c6573736f6e20697320616c726561647920696e616374697665000000000000600082015250565b600061292c601a836126af565b9150612937826128f6565b602082019050919050565b6000602082019050818103600083015261295b8161291f565b9050919050565b7f4e487b7100000000000000000000000000000000000000000000000000000000600052602260045260246000fd5b600060028204905060018216806129a957607f821691505b6020821081036129bc576129bb612962565b5b50919050565b60008190508160005260206000209050919050565b60006020601f8301049050919050565b60008160020a8302905092915050565b600060088302612a277fffffffffffffffffffffffffffffffffffffffffffffffffffffffffffffffff826129e7565b612a3186836129e7565b95508019841693508086168417925050509392505050565b6000612a64612a5f612a5a84611dd5565b6124bf565b611dd5565b9050919050565b6000819050919050565b612a7e83612a49565b612a92612a8a82612a6b565b8484546129f7565b825550505050565b600090565b612aa7612a9a565b612ab2818484612a75565b505050565b5b81811015612ad657612acb600082612a9f565b600181019050612ab8565b5050565b601f821115612b1b57612aec816129c2565b612af5846129d7565b81016020851015612b04578190505b612b18612b10856129d7565b830182612ab7565b50505b505050565b60008160020a8304905092915050565b6000612b4160001984600802612b20565b1980831691505092915050565b6000612b5a8383612b30565b9150826002028217905092915050565b612b7382612141565b67ffffffffffffffff811115612b8c57612b8b611e53565b5b612b968254612991565b612ba1828285612ada565b600060209050601f831160018114612bd45760008415612bc2578287015190505b612bcc8582612b4e565b865550612c34565b601f198416612be2866129c2565b60005b82811015612c0a57848901518255600182019150602085019450602081019050612be5565b86831015612c275784890151612c23601f891682612b30565b8355505b6001600288020188555050505b505050505050565b60006040820190508181036000830152612c5681856126c0565b9050612c6560208301846126a0565b9392505050565b7f4e487b7100000000000000000000000000000000000000000000000000000000600052601160045260246000fd5b6000612ca682611dd5565b91507fffffffffffffffffffffffffffffffffffffffffffffffffffffffffffffffff8203612cd857612cd7612c6c565b5b600182019050919050565b7f4e487b7100000000000000000000000000000000000000000000000000000000600052603260045260246000fd5b7f4c6573736f6e206973206e6f7420616374697665000000000000000000000000600082015250565b6000612d486014836126af565b9150612d5382612d12565b602082019050919050565b60006020820190508181036000830152612d7781612d3b565b9050919050565b7f4c6573736f6e20616c7265616479207075726368617365640000000000000000600082015250565b6000612db46018836126af565b9150612dbf82612d7e565b602082019050919050565b60006020820190508181036000830152612de381612da7565b9050919050565b600081519050612df981611ddf565b92915050565b600060208284031215612e1557612e14611dcb565b5b6000612e2384828501612dea565b91505092915050565b7f496e73756666696369656e7420594420746f6b656e7300000000000000000000600082015250565b6000612e626016836126af565b9150612e6d82612e2c565b602082019050919050565b60006020820190508181036000830152612e9181612e55565b9050919050565b6000606082019050612ead6000830186612539565b612eba6020830185612539565b612ec760408301846126a0565b949350505050565b612ed8816121c0565b8114612ee357600080fd5b50565b600081519050612ef581612ecf565b92915050565b600060208284031215612f1157612f10611dcb565b5b6000612f1f84828501612ee6565b91505092915050565b7f546f6b656e207472616e73666572206661696c65640000000000000000000000600082015250565b6000612f5e6015836126af565b9150612f6982612f28565b602082019050919050565b60006020820190508181036000830152612f8d81612f51565b9050919050565b7f4e6f20746f6b656e7320746f2077697468647261770000000000000000000000600082015250565b6000612fca6015836126af565b9150612fd582612f94565b602082019050919050565b60006020820190508181036000830152612ff981612fbd565b9050919050565b60006040820190506130156000830185612539565b61302260208301846126a0565b9392505050565b7f4f776e61626c653a206e6577206f776e657220697320746865207a65726f206160008201527f6464726573730000000000000000000000000000000000000000000000000000602082015250565b60006130856026836126af565b915061309082613029565b604082019050919050565b600060208201905081810360008301526130b481613078565b9050919050565b7f4f776e61626c653a2063616c6c6572206973206e6f7420746865206f776e6572600082015250565b60006130f16020836126af565b91506130fc826130bb565b602082019050919050565b60006020820190508181036000830152613120816130e4565b905091905056fea2646970667358221220891c6eacf85875640a96e9b6d20529cd2d2fb00124f6c96aa1f4753cf615be2a64736f6c63430008140033",
  "immutableReferences": {},
  "source": "// SPDX-License-Identifier: MIT\npragma solidity ^0.8.20;\n\nimport \"@openzeppelin/contracts/access/Ownable.sol\";\nimport \"./yd-lesson-token.sol\";\n\nstruct Lesson {\n    // id\n    uint256 id;\n    string name;\n    string description;\n    uint256 price;\n    string link;\n    string cover;\n    bool isActive;\n}\n\n// \nstruct LessonInfo {\n    uint256 id;\n    string name;\n    string description;\n    uint256 price;\n    string cover;\n    bool purchased;\n}\n\ncontract YDCollege is Ownable {\n    // \n    mapping(uint256 => Lesson) public lessons;\n    // \n    uint256 public lessonCount;\n    // \n    mapping(address => mapping(uint256 => bool)) public userPurchases;\n    // YD\n    YDLessonToken public tokenContract;\n\n    // \n    event LessonCreated(uint256 indexed lessonId, string name, uint256 price);\n    event LessonUpdated(uint256 indexed lessonId, string name, uint256 price);\n    event LessonDeleted(uint256 indexed lessonId);\n    event LessonPurchased(address indexed user, uint256 indexed lessonId);\n\n    constructor(address _tokenContract) Ownable() {\n        tokenContract = YDLessonToken(_tokenContract);\n    }\n\n    // \n    function addLesson(\n        string memory _name,\n        string memory _description,\n        uint256 _price,\n        string memory _link,\n        string memory _cover\n    ) public onlyOwner {\n        lessonCount++;\n        lessons[lessonCount] = Lesson({\n            id: lessonCount,\n            name: _name,\n            description: _description,\n            price: _price,\n            link: _link,\n            cover: _cover,\n            isActive: true\n        });\n\n        emit LessonCreated(lessonCount, _name, _price);\n    }\n\n    // \n    function updateLesson(\n        uint256 _lessonId,\n        string memory _name,\n        string memory _description,\n        uint256 _price,\n        string memory _link,\n        string memory _cover\n    ) public onlyOwner {\n        require(_lessonId <= lessonCount && _lessonId > 0, \"Invalid lesson ID\");\n\n        lessons[_lessonId].name = _name;\n        lessons[_lessonId].description = _description;\n        lessons[_lessonId].price = _price;\n        lessons[_lessonId].link = _link;\n        lessons[_lessonId].cover = _cover;\n\n        emit LessonUpdated(_lessonId, _name, _price);\n    }\n\n    // \n    function deleteLesson(uint256 _lessonId) public onlyOwner {\n        require(_lessonId <= lessonCount && _lessonId > 0, \"Invalid lesson ID\");\n        require(lessons[_lessonId].isActive, \"Lesson is already inactive\");\n\n        lessons[_lessonId].isActive = false;\n        emit LessonDeleted(_lessonId);\n    }\n\n    // \n    function getActiveLessons(\n        address _user\n    ) public view returns (LessonInfo[] memory) {\n        // \n        uint256 activeCount = 0;\n        for (uint256 i = 1; i <= lessonCount; i++) {\n            if (lessons[i].isActive) {\n                activeCount++;\n            }\n        }\n\n        // \n        LessonInfo[] memory activeLessons = new LessonInfo[](activeCount);\n        uint256 currentIndex = 0;\n\n        // \n        for (uint256 i = 1; i <= lessonCount; i++) {\n            if (lessons[i].isActive) {\n                Lesson memory lesson = lessons[i];\n                activeLessons[currentIndex] = LessonInfo({\n                    id: i,\n                    name: lesson.name,\n                    description: lesson.description,\n                    price: lesson.price,\n                    cover: lesson.cover,\n                    purchased: userPurchases[_user][i]\n                });\n                currentIndex++;\n            }\n        }\n\n        return activeLessons;\n    }\n\n    // \n    function purchaseLesson(uint256 _lessonId) public {\n        require(_lessonId <= lessonCount && _lessonId > 0, \"Invalid lesson ID\");\n        require(lessons[_lessonId].isActive, \"Lesson is not active\");\n        require(\n            !userPurchases[msg.sender][_lessonId],\n            \"Lesson already purchased\"\n        );\n\n        uint256 price = lessons[_lessonId].price;\n        require(\n            tokenContract.balanceOf(msg.sender) >= price,\n            \"Insufficient YD tokens\"\n        );\n\n        //  -  transferFrom approve\n        require(\n            tokenContract.transferFrom(msg.sender, address(this), price),\n            \"Token transfer failed\"\n        );\n\n        // \n        userPurchases[msg.sender][_lessonId] = true;\n\n        emit LessonPurchased(msg.sender, _lessonId);\n    }\n\n    // \n    function getUserPurchasedLessons(\n        address _user\n    ) public view returns (Lesson[] memory) {\n        // \n        uint256 purchasedCount = 0;\n        for (uint256 i = 1; i <= lessonCount; i++) {\n            if (userPurchases[_user][i]) {\n                purchasedCount++;\n            }\n        }\n        Lesson[] memory purchasedLessons = new Lesson[](purchasedCount);\n        uint256 tempIndex = 0;\n        for (uint256 i = 1; i <= lessonCount; i++) {\n            if (userPurchases[_user][i]) {\n                purchasedLessons[tempIndex] = lessons[i];\n                tempIndex++;\n            }\n        }\n        return purchasedLessons;\n    }\n\n    // YD\n    function withdrawYDTokens() public onlyOwner {\n        uint256 balance = tokenContract.balanceOf(address(this));\n        require(balance > 0, \"No tokens to withdraw\");\n\n        require(\n            tokenContract.transfer(owner(), balance),\n            \"Token transfer failed\"\n        );\n    }\n\n    // \n    function getLesson(uint256 _lessonId) public view returns (Lesson memory) {\n        require(_lessonId <= lessonCount && _lessonId > 0, \"Invalid lesson ID\");\n        return lessons[_lessonId];\n    }\n}\n",
  "sourcePath": "/Users/dengxiongfei/Documents/yideng/solidity-demo/yd-lesson/contracts/yd-college.sol",
  "compiler": {
    "name": "solc",
    "version": "0.8.20+commit.a1b79de6.Emscripten.clang"
  },
  "schemaVersion": "3.4.16",
  "updatedAt": "2025-06-05T03:41:01.098Z",
  "networkType": "ethereum",
  "devdoc": {
    "kind": "dev",
    "methods": {
      "owner()": {
        "details": "Returns the address of the current owner."
      },
      "renounceOwnership()": {
        "details": "Leaves the contract without owner. It will not be possible to call `onlyOwner` functions. Can only be called by the current owner. NOTE: Renouncing ownership will leave the contract without an owner, thereby disabling any functionality that is only available to the owner."
      },
      "transferOwnership(address)": {
        "details": "Transfers ownership of the contract to a new account (`newOwner`). Can only be called by the current owner."
      }
    },
    "version": 1
  },
  "userdoc": {
    "kind": "user",
    "methods": {},
    "version": 1
  }
}