{
  "contractName": "YDLessonToken",
  "abi": [
    {
      "inputs": [],
      "stateMutability": "nonpayable",
      "type": "constructor"
    },
    {
      "anonymous": false,
      "inputs": [
        {
          "indexed": true,
          "internalType": "address",
          "name": "owner",
          "type": "address"
        },
        {
          "indexed": true,
          "internalType": "address",
          "name": "spender",
          "type": "address"
        },
        {
          "indexed": false,
          "internalType": "uint256",
          "name": "value",
          "type": "uint256"
        }
      ],
      "name": "Approval",
      "type": "event"
    },
    {
      "anonymous": false,
      "inputs": [
        {
          "indexed": true,
          "internalType": "address",
          "name": "previousOwner",
          "type": "address"
        },
        {
          "indexed": true,
          "internalType": "address",
          "name": "newOwner",
          "type": "address"
        }
      ],
      "name": "OwnershipTransferred",
      "type": "event"
    },
    {
      "anonymous": false,
      "inputs": [
        {
          "indexed": true,
          "internalType": "address",
          "name": "from",
          "type": "address"
        },
        {
          "indexed": true,
          "internalType": "address",
          "name": "to",
          "type": "address"
        },
        {
          "indexed": false,
          "internalType": "uint256",
          "name": "value",
          "type": "uint256"
        }
      ],
      "name": "Transfer",
      "type": "event"
    },
    {
      "inputs": [],
      "name": "EXCHANGE_RATE",
      "outputs": [
        {
          "internalType": "uint256",
          "name": "",
          "type": "uint256"
        }
      ],
      "stateMutability": "view",
      "type": "function",
      "constant": true
    },
    {
      "inputs": [],
      "name": "INITIAL_SUPPLY",
      "outputs": [
        {
          "internalType": "uint256",
          "name": "",
          "type": "uint256"
        }
      ],
      "stateMutability": "view",
      "type": "function",
      "constant": true
    },
    {
      "inputs": [],
      "name": "NAME",
      "outputs": [
        {
          "internalType": "string",
          "name": "",
          "type": "string"
        }
      ],
      "stateMutability": "view",
      "type": "function",
      "constant": true
    },
    {
      "inputs": [],
      "name": "SYMBOL",
      "outputs": [
        {
          "internalType": "string",
          "name": "",
          "type": "string"
        }
      ],
      "stateMutability": "view",
      "type": "function",
      "constant": true
    },
    {
      "inputs": [
        {
          "internalType": "address",
          "name": "owner",
          "type": "address"
        },
        {
          "internalType": "address",
          "name": "spender",
          "type": "address"
        }
      ],
      "name": "allowance",
      "outputs": [
        {
          "internalType": "uint256",
          "name": "",
          "type": "uint256"
        }
      ],
      "stateMutability": "view",
      "type": "function",
      "constant": true
    },
    {
      "inputs": [
        {
          "internalType": "address",
          "name": "spender",
          "type": "address"
        },
        {
          "internalType": "uint256",
          "name": "amount",
          "type": "uint256"
        }
      ],
      "name": "approve",
      "outputs": [
        {
          "internalType": "bool",
          "name": "",
          "type": "bool"
        }
      ],
      "stateMutability": "nonpayable",
      "type": "function"
    },
    {
      "inputs": [
        {
          "internalType": "address",
          "name": "account",
          "type": "address"
        }
      ],
      "name": "balanceOf",
      "outputs": [
        {
          "internalType": "uint256",
          "name": "",
          "type": "uint256"
        }
      ],
      "stateMutability": "view",
      "type": "function",
      "constant": true
    },
    {
      "inputs": [
        {
          "internalType": "address",
          "name": "spender",
          "type": "address"
        },
        {
          "internalType": "uint256",
          "name": "subtractedValue",
          "type": "uint256"
        }
      ],
      "name": "decreaseAllowance",
      "outputs": [
        {
          "internalType": "bool",
          "name": "",
          "type": "bool"
        }
      ],
      "stateMutability": "nonpayable",
      "type": "function"
    },
    {
      "inputs": [
        {
          "internalType": "address",
          "name": "spender",
          "type": "address"
        },
        {
          "internalType": "uint256",
          "name": "addedValue",
          "type": "uint256"
        }
      ],
      "name": "increaseAllowance",
      "outputs": [
        {
          "internalType": "bool",
          "name": "",
          "type": "bool"
        }
      ],
      "stateMutability": "nonpayable",
      "type": "function"
    },
    {
      "inputs": [],
      "name": "name",
      "outputs": [
        {
          "internalType": "string",
          "name": "",
          "type": "string"
        }
      ],
      "stateMutability": "view",
      "type": "function",
      "constant": true
    },
    {
      "inputs": [],
      "name": "owner",
      "outputs": [
        {
          "internalType": "address",
          "name": "",
          "type": "address"
        }
      ],
      "stateMutability": "view",
      "type": "function",
      "constant": true
    },
    {
      "inputs": [],
      "name": "renounceOwnership",
      "outputs": [],
      "stateMutability": "nonpayable",
      "type": "function"
    },
    {
      "inputs": [],
      "name": "symbol",
      "outputs": [
        {
          "internalType": "string",
          "name": "",
          "type": "string"
        }
      ],
      "stateMutability": "view",
      "type": "function",
      "constant": true
    },
    {
      "inputs": [],
      "name": "totalSupply",
      "outputs": [
        {
          "internalType": "uint256",
          "name": "",
          "type": "uint256"
        }
      ],
      "stateMutability": "view",
      "type": "function",
      "constant": true
    },
    {
      "inputs": [
        {
          "internalType": "address",
          "name": "to",
          "type": "address"
        },
        {
          "internalType": "uint256",
          "name": "amount",
          "type": "uint256"
        }
      ],
      "name": "transfer",
      "outputs": [
        {
          "internalType": "bool",
          "name": "",
          "type": "bool"
        }
      ],
      "stateMutability": "nonpayable",
      "type": "function"
    },
    {
      "inputs": [
        {
          "internalType": "address",
          "name": "from",
          "type": "address"
        },
        {
          "internalType": "address",
          "name": "to",
          "type": "address"
        },
        {
          "internalType": "uint256",
          "name": "amount",
          "type": "uint256"
        }
      ],
      "name": "transferFrom",
      "outputs": [
        {
          "internalType": "bool",
          "name": "",
          "type": "bool"
        }
      ],
      "stateMutability": "nonpayable",
      "type": "function"
    },
    {
      "inputs": [
        {
          "internalType": "address",
          "name": "newOwner",
          "type": "address"
        }
      ],
      "name": "transferOwnership",
      "outputs": [],
      "stateMutability": "nonpayable",
      "type": "function"
    },
    {
      "inputs": [],
      "name": "decimals",
      "outputs": [
        {
          "internalType": "uint8",
          "name": "",
          "type": "uint8"
        }
      ],
      "stateMutability": "pure",
      "type": "function",
      "constant": true
    },
    {
      "inputs": [],
      "name": "buyTokens",
      "outputs": [],
      "stateMutability": "payable",
      "type": "function",
      "payable": true
    },
    {
      "inputs": [],
      "name": "withdrawETH",
      "outputs": [],
      "stateMutability": "nonpayable",
      "type": "function"
    }
  ],
  "bytecode": "0x60806040523480156200001157600080fd5b506040518060400160405280601081526020017f596944656e674552433230546f6b656e000000000000000000000000000000008152506040518060400160405280600281526020017f594400000000000000000000000000000000000000000000000000000000000081525081600390816200008f9190620005d1565b508060049081620000a19190620005d1565b505050620000d6620000c1620000fa640100000000026401000000009004565b62000102640100000000026401000000009004565b620000f433620f4240620001c8640100000000026401000000009004565b620007d3565b600033905090565b6000600560009054906101000a900473ffffffffffffffffffffffffffffffffffffffff16905081600560006101000a81548173ffffffffffffffffffffffffffffffffffffffff021916908373ffffffffffffffffffffffffffffffffffffffff1602179055508173ffffffffffffffffffffffffffffffffffffffff168173ffffffffffffffffffffffffffffffffffffffff167f8be0079c531659141344cd1fd0a4f28419497f9722a3daafe3b4186f6b6457e060405160405180910390a35050565b600073ffffffffffffffffffffffffffffffffffffffff168273ffffffffffffffffffffffffffffffffffffffff16036200023a576040517f08c379a0000000000000000000000000000000000000000000000000000000008152600401620002319062000719565b60405180910390fd5b620002576000838362000347640100000000026401000000009004565b80600260008282546200026b91906200076a565b92505081905550806000808473ffffffffffffffffffffffffffffffffffffffff1673ffffffffffffffffffffffffffffffffffffffff168152602001908152602001600020600082825401925050819055508173ffffffffffffffffffffffffffffffffffffffff16600073ffffffffffffffffffffffffffffffffffffffff167fddf252ad1be2c89b69c2b068fc378daa952ba7f163c4a11628f55a4df523b3ef836040516200031e9190620007b6565b60405180910390a362000343600083836200034c640100000000026401000000009004565b5050565b505050565b505050565b600081519050919050565b7f4e487b7100000000000000000000000000000000000000000000000000000000600052604160045260246000fd5b7f4e487b7100000000000000000000000000000000000000000000000000000000600052602260045260246000fd5b60006002820490506001821680620003d357607f821691505b602082108103620003e957620003e86200038b565b5b50919050565b60008190508160005260206000209050919050565b60006020601f8301049050919050565b60008160020a8302905092915050565b600060088302620004567fffffffffffffffffffffffffffffffffffffffffffffffffffffffffffffffff8262000414565b62000462868362000414565b95508019841693508086168417925050509392505050565b6000819050919050565b6000819050919050565b6000620004af620004a9620004a3846200047a565b62000484565b6200047a565b9050919050565b6000819050919050565b620004cb836200048e565b620004e3620004da82620004b6565b84845462000424565b825550505050565b600090565b620004fa620004eb565b62000507818484620004c0565b505050565b5b818110156200052f5762000523600082620004f0565b6001810190506200050d565b5050565b601f8211156200057e576200054881620003ef565b620005538462000404565b8101602085101562000563578190505b6200057b620005728562000404565b8301826200050c565b50505b505050565b60008160020a8304905092915050565b6000620005a66000198460080262000583565b1980831691505092915050565b6000620005c1838362000593565b9150826002028217905092915050565b620005dc8262000351565b67ffffffffffffffff811115620005f857620005f76200035c565b5b620006048254620003ba565b6200061182828562000533565b600060209050601f83116001811462000649576000841562000634578287015190505b620006408582620005b3565b865550620006b0565b601f1984166200065986620003ef565b60005b8281101562000683578489015182556001820191506020850194506020810190506200065c565b86831015620006a357848901516200069f601f89168262000593565b8355505b6001600288020188555050505b505050505050565b600082825260208201905092915050565b7f45524332303a206d696e7420746f20746865207a65726f206164647265737300600082015250565b600062000701601f83620006b8565b91506200070e82620006c9565b602082019050919050565b600060208201905081810360008301526200073481620006f2565b9050919050565b7f4e487b7100000000000000000000000000000000000000000000000000000000600052601160045260246000fd5b600062000777826200047a565b915062000784836200047a565b92508282019050808211156200079f576200079e6200073b565b5b92915050565b620007b0816200047a565b82525050565b6000602082019050620007cd6000830184620007a5565b92915050565b611b1480620007e36000396000f3fe60806040526004361061013c576000357c0100000000000000000000000000000000000000000000000000000000900480638da5cb5b116100bd578063d0febe4c11610081578063d0febe4c1461041e578063dd62ed3e14610428578063e086e5ec14610465578063f2fde38b1461047c578063f76f8d78146104a55761013c565b80638da5cb5b1461032357806395d89b411461034e578063a3f4df7e14610379578063a457c2d7146103a4578063a9059cbb146103e15761013c565b80632ff2e9dc116101045780632ff2e9dc1461023c578063313ce56714610267578063395093511461029257806370a08231146102cf578063715018a61461030c5761013c565b806306fdde0314610141578063095ea7b31461016c57806314a8bd0d146101a957806318160ddd146101d457806323b872dd146101ff575b600080fd5b34801561014d57600080fd5b506101566104d0565b6040516101639190611129565b60405180910390f35b34801561017857600080fd5b50610193600480360381019061018e91906111e4565b610562565b6040516101a0919061123f565b60405180910390f35b3480156101b557600080fd5b506101be610585565b6040516101cb9190611269565b60405180910390f35b3480156101e057600080fd5b506101e961058b565b6040516101f69190611269565b60405180910390f35b34801561020b57600080fd5b5061022660048036038101906102219190611284565b610595565b604051610233919061123f565b60405180910390f35b34801561024857600080fd5b506102516105c4565b60405161025e9190611269565b60405180910390f35b34801561027357600080fd5b5061027c6105cb565b60405161028991906112f3565b60405180910390f35b34801561029e57600080fd5b506102b960048036038101906102b491906111e4565b6105d0565b6040516102c6919061123f565b60405180910390f35b3480156102db57600080fd5b506102f660048036038101906102f1919061130e565b610607565b6040516103039190611269565b60405180910390f35b34801561031857600080fd5b5061032161064f565b005b34801561032f57600080fd5b50610338610663565b604051610345919061134a565b60405180910390f35b34801561035a57600080fd5b5061036361068d565b6040516103709190611129565b60405180910390f35b34801561038557600080fd5b5061038e61071f565b60405161039b9190611129565b60405180910390f35b3480156103b057600080fd5b506103cb60048036038101906103c691906111e4565b610758565b6040516103d8919061123f565b60405180910390f35b3480156103ed57600080fd5b50610408600480360381019061040391906111e4565b6107cf565b604051610415919061123f565b60405180910390f35b6104266107f2565b005b34801561043457600080fd5b5061044f600480360381019061044a9190611365565b6108c6565b60405161045c9190611269565b60405180910390f35b34801561047157600080fd5b5061047a61094d565b005b34801561048857600080fd5b506104a3600480360381019061049e919061130e565b6109bc565b005b3480156104b157600080fd5b506104ba610a3f565b6040516104c79190611129565b60405180910390f35b6060600380546104df906113d4565b80601f016020809104026020016040519081016040528092919081815260200182805461050b906113d4565b80156105585780601f1061052d57610100808354040283529160200191610558565b820191906000526020600020905b81548152906001019060200180831161053b57829003601f168201915b5050505050905090565b60008061056d610a78565b905061057a818585610a80565b600191505092915050565b61271081565b6000600254905090565b6000806105a0610a78565b90506105ad858285610c49565b6105b8858585610cd5565b60019150509392505050565b620f424081565b600090565b6000806105db610a78565b90506105fc8185856105ed85896108c6565b6105f79190611434565b610a80565b600191505092915050565b60008060008373ffffffffffffffffffffffffffffffffffffffff1673ffffffffffffffffffffffffffffffffffffffff168152602001908152602001600020549050919050565b610657610f4b565b6106616000610fc9565b565b6000600560009054906101000a900473ffffffffffffffffffffffffffffffffffffffff16905090565b60606004805461069c906113d4565b80601f01602080910402602001604051908101604052809291908181526020018280546106c8906113d4565b80156107155780601f106106ea57610100808354040283529160200191610715565b820191906000526020600020905b8154815290600101906020018083116106f857829003601f168201915b5050505050905090565b6040518060400160405280601081526020017f596944656e674552433230546f6b656e0000000000000000000000000000000081525081565b600080610763610a78565b9050600061077182866108c6565b9050838110156107b6576040517f08c379a00000000000000000000000000000000000000000000000000000000081526004016107ad906114da565b60405180910390fd5b6107c38286868403610a80565b60019250505092915050565b6000806107da610a78565b90506107e7818585610cd5565b600191505092915050565b655af3107a4000341161083a576040517f08c379a00000000000000000000000000000000000000000000000000000000081526004016108319061156c565b60405180910390fd5b6000670de0b6b3a764000061271034610853919061158c565b61085d91906115fd565b90508061087061086b610663565b610607565b10156108b1576040517f08c379a00000000000000000000000000000000000000000000000000000000081526004016108a89061167a565b60405180910390fd5b6108c36108bc610663565b3383610cd5565b50565b6000600160008473ffffffffffffffffffffffffffffffffffffffff1673ffffffffffffffffffffffffffffffffffffffff16815260200190815260200160002060008373ffffffffffffffffffffffffffffffffffffffff1673ffffffffffffffffffffffffffffffffffffffff16815260200190815260200160002054905092915050565b610955610f4b565b61095d610663565b73ffffffffffffffffffffffffffffffffffffffff166108fc3073ffffffffffffffffffffffffffffffffffffffff16319081150290604051600060405180830381858888f193505050501580156109b9573d6000803e3d6000fd5b50565b6109c4610f4b565b600073ffffffffffffffffffffffffffffffffffffffff168173ffffffffffffffffffffffffffffffffffffffff1603610a33576040517f08c379a0000000000000000000000000000000000000000000000000000000008152600401610a2a9061170c565b60405180910390fd5b610a3c81610fc9565b50565b6040518060400160405280600281526020017f594400000000000000000000000000000000000000000000000000000000000081525081565b600033905090565b600073ffffffffffffffffffffffffffffffffffffffff168373ffffffffffffffffffffffffffffffffffffffff1603610aef576040517f08c379a0000000000000000000000000000000000000000000000000000000008152600401610ae69061179e565b60405180910390fd5b600073ffffffffffffffffffffffffffffffffffffffff168273ffffffffffffffffffffffffffffffffffffffff1603610b5e576040517f08c379a0000000000000000000000000000000000000000000000000000000008152600401610b5590611830565b60405180910390fd5b80600160008573ffffffffffffffffffffffffffffffffffffffff1673ffffffffffffffffffffffffffffffffffffffff16815260200190815260200160002060008473ffffffffffffffffffffffffffffffffffffffff1673ffffffffffffffffffffffffffffffffffffffff168152602001908152602001600020819055508173ffffffffffffffffffffffffffffffffffffffff168373ffffffffffffffffffffffffffffffffffffffff167f8c5be1e5ebec7d5bd14f71427d1e84f3dd0314c0f7b2291e5b200ac8c7c3b92583604051610c3c9190611269565b60405180910390a3505050565b6000610c5584846108c6565b90507fffffffffffffffffffffffffffffffffffffffffffffffffffffffffffffffff8114610ccf5781811015610cc1576040517f08c379a0000000000000000000000000000000000000000000000000000000008152600401610cb89061189c565b60405180910390fd5b610cce8484848403610a80565b5b50505050565b600073ffffffffffffffffffffffffffffffffffffffff168373ffffffffffffffffffffffffffffffffffffffff1603610d44576040517f08c379a0000000000000000000000000000000000000000000000000000000008152600401610d3b9061192e565b60405180910390fd5b600073ffffffffffffffffffffffffffffffffffffffff168273ffffffffffffffffffffffffffffffffffffffff1603610db3576040517f08c379a0000000000000000000000000000000000000000000000000000000008152600401610daa906119c0565b60405180910390fd5b610dbe83838361108f565b60008060008573ffffffffffffffffffffffffffffffffffffffff1673ffffffffffffffffffffffffffffffffffffffff16815260200190815260200160002054905081811015610e44576040517f08c379a0000000000000000000000000000000000000000000000000000000008152600401610e3b90611a52565b60405180910390fd5b8181036000808673ffffffffffffffffffffffffffffffffffffffff1673ffffffffffffffffffffffffffffffffffffffff16815260200190815260200160002081905550816000808573ffffffffffffffffffffffffffffffffffffffff1673ffffffffffffffffffffffffffffffffffffffff168152602001908152602001600020600082825401925050819055508273ffffffffffffffffffffffffffffffffffffffff168473ffffffffffffffffffffffffffffffffffffffff167fddf252ad1be2c89b69c2b068fc378daa952ba7f163c4a11628f55a4df523b3ef84604051610f329190611269565b60405180910390a3610f45848484611094565b50505050565b610f53610a78565b73ffffffffffffffffffffffffffffffffffffffff16610f71610663565b73ffffffffffffffffffffffffffffffffffffffff1614610fc7576040517f08c379a0000000000000000000000000000000000000000000000000000000008152600401610fbe90611abe565b60405180910390fd5b565b6000600560009054906101000a900473ffffffffffffffffffffffffffffffffffffffff16905081600560006101000a81548173ffffffffffffffffffffffffffffffffffffffff021916908373ffffffffffffffffffffffffffffffffffffffff1602179055508173ffffffffffffffffffffffffffffffffffffffff168173ffffffffffffffffffffffffffffffffffffffff167f8be0079c531659141344cd1fd0a4f28419497f9722a3daafe3b4186f6b6457e060405160405180910390a35050565b505050565b505050565b600081519050919050565b600082825260208201905092915050565b60005b838110156110d35780820151818401526020810190506110b8565b60008484015250505050565b6000601f19601f8301169050919050565b60006110fb82611099565b61110581856110a4565b93506111158185602086016110b5565b61111e816110df565b840191505092915050565b6000602082019050818103600083015261114381846110f0565b905092915050565b600080fd5b600073ffffffffffffffffffffffffffffffffffffffff82169050919050565b600061117b82611150565b9050919050565b61118b81611170565b811461119657600080fd5b50565b6000813590506111a881611182565b92915050565b6000819050919050565b6111c1816111ae565b81146111cc57600080fd5b50565b6000813590506111de816111b8565b92915050565b600080604083850312156111fb576111fa61114b565b5b600061120985828601611199565b925050602061121a858286016111cf565b9150509250929050565b60008115159050919050565b61123981611224565b82525050565b60006020820190506112546000830184611230565b92915050565b611263816111ae565b82525050565b600060208201905061127e600083018461125a565b92915050565b60008060006060848603121561129d5761129c61114b565b5b60006112ab86828701611199565b93505060206112bc86828701611199565b92505060406112cd868287016111cf565b9150509250925092565b600060ff82169050919050565b6112ed816112d7565b82525050565b600060208201905061130860008301846112e4565b92915050565b6000602082840312156113245761132361114b565b5b600061133284828501611199565b91505092915050565b61134481611170565b82525050565b600060208201905061135f600083018461133b565b92915050565b6000806040838503121561137c5761137b61114b565b5b600061138a85828601611199565b925050602061139b85828601611199565b9150509250929050565b7f4e487b7100000000000000000000000000000000000000000000000000000000600052602260045260246000fd5b600060028204905060018216806113ec57607f821691505b6020821081036113ff576113fe6113a5565b5b50919050565b7f4e487b7100000000000000000000000000000000000000000000000000000000600052601160045260246000fd5b600061143f826111ae565b915061144a836111ae565b925082820190508082111561146257611461611405565b5b92915050565b7f45524332303a2064656372656173656420616c6c6f77616e63652062656c6f7760008201527f207a65726f000000000000000000000000000000000000000000000000000000602082015250565b60006114c46025836110a4565b91506114cf82611468565b604082019050919050565b600060208201905081810360008301526114f3816114b7565b9050919050565b7f45544820616d6f756e74206d7573742062652067726561746572207468616e2060008201527f302e303030310000000000000000000000000000000000000000000000000000602082015250565b60006115566026836110a4565b9150611561826114fa565b604082019050919050565b6000602082019050818103600083015261158581611549565b9050919050565b6000611597826111ae565b91506115a2836111ae565b92508282026115b0816111ae565b915082820484148315176115c7576115c6611405565b5b5092915050565b7f4e487b7100000000000000000000000000000000000000000000000000000000600052601260045260246000fd5b6000611608826111ae565b9150611613836111ae565b925082611623576116226115ce565b5b828204905092915050565b7f496e73756666696369656e7420746f6b656e7320696e20636f6e747261637400600082015250565b6000611664601f836110a4565b915061166f8261162e565b602082019050919050565b6000602082019050818103600083015261169381611657565b9050919050565b7f4f776e61626c653a206e6577206f776e657220697320746865207a65726f206160008201527f6464726573730000000000000000000000000000000000000000000000000000602082015250565b60006116f66026836110a4565b91506117018261169a565b604082019050919050565b60006020820190508181036000830152611725816116e9565b9050919050565b7f45524332303a20617070726f76652066726f6d20746865207a65726f2061646460008201527f7265737300000000000000000000000000000000000000000000000000000000602082015250565b60006117886024836110a4565b91506117938261172c565b604082019050919050565b600060208201905081810360008301526117b78161177b565b9050919050565b7f45524332303a20617070726f766520746f20746865207a65726f20616464726560008201527f7373000000000000000000000000000000000000000000000000000000000000602082015250565b600061181a6022836110a4565b9150611825826117be565b604082019050919050565b600060208201905081810360008301526118498161180d565b9050919050565b7f45524332303a20696e73756666696369656e7420616c6c6f77616e6365000000600082015250565b6000611886601d836110a4565b915061189182611850565b602082019050919050565b600060208201905081810360008301526118b581611879565b9050919050565b7f45524332303a207472616e736665722066726f6d20746865207a65726f20616460008201527f6472657373000000000000000000000000000000000000000000000000000000602082015250565b60006119186025836110a4565b9150611923826118bc565b604082019050919050565b600060208201905081810360008301526119478161190b565b9050919050565b7f45524332303a207472616e7366657220746f20746865207a65726f206164647260008201527f6573730000000000000000000000000000000000000000000000000000000000602082015250565b60006119aa6023836110a4565b91506119b58261194e565b604082019050919050565b600060208201905081810360008301526119d98161199d565b9050919050565b7f45524332303a207472616e7366657220616d6f756e742065786365656473206260008201527f616c616e63650000000000000000000000000000000000000000000000000000602082015250565b6000611a3c6026836110a4565b9150611a47826119e0565b604082019050919050565b60006020820190508181036000830152611a6b81611a2f565b9050919050565b7f4f776e61626c653a2063616c6c6572206973206e6f7420746865206f776e6572600082015250565b6000611aa86020836110a4565b9150611ab382611a72565b602082019050919050565b60006020820190508181036000830152611ad781611a9b565b905091905056fea26469706673582212202279599a03e8c0795a06e9c4d51895422e0e6ff01c35f1576b81f915ebdb917d64736f6c63430008140033",
  "immutableReferences": {},
  "source": "// SPDX-License-Identifier: MIT\npragma solidity ^0.8.20;\n\nimport \"@openzeppelin/contracts/token/ERC20/ERC20.sol\";\nimport \"@openzeppelin/contracts/access/Ownable.sol\";\n\ncontract YDLessonToken is ERC20, Ownable {\n    // \n    string public constant NAME = \"YiDengERC20Token\";\n\n    // \n    string public constant SYMBOL = \"YD\";\n\n    // \n    uint256 public constant INITIAL_SUPPLY = 1000000;\n\n    // ETH  (1 ETH = 10000 YD)\n    uint256 public constant EXCHANGE_RATE = 10000;\n\n    constructor() ERC20(NAME, SYMBOL) Ownable() {\n        //  _mint \n        _mint(msg.sender, INITIAL_SUPPLY);\n    }\n\n    //  decimals  0,eth18\n    function decimals() public pure override returns (uint8) {\n        return 0;\n    }\n\n    //  ETH payable  msg.value \n    function buyTokens() public payable {\n        //  eth  0.0001\n        require(\n            msg.value > 0.0001 ether,\n            \"ETH amount must be greater than 0.0001\"\n        );\n        uint256 tokenAmount = (msg.value * EXCHANGE_RATE) / 1 ether;\n        require(\n            balanceOf(owner()) >= tokenAmount,\n            \"Insufficient tokens in contract\"\n        );\n        // \n        _transfer(owner(), msg.sender, tokenAmount);\n    }\n\n    //  ETH\n    function withdrawETH() public onlyOwner {\n        payable(owner()).transfer(address(this).balance);\n    }\n}\n",
  "sourcePath": "/Users/dengxiongfei/Documents/yideng/solidity-demo/yd-lesson/contracts/yd-lesson-token.sol",
  "compiler": {
    "name": "solc",
    "version": "0.8.20+commit.a1b79de6.Emscripten.clang"
  },
  "schemaVersion": "3.4.16",
  "updatedAt": "2025-06-05T03:41:01.085Z",
  "networkType": "ethereum",
  "devdoc": {
    "events": {
      "Approval(address,address,uint256)": {
        "details": "Emitted when the allowance of a `spender` for an `owner` is set by a call to {approve}. `value` is the new allowance."
      },
      "Transfer(address,address,uint256)": {
        "details": "Emitted when `value` tokens are moved from one account (`from`) to another (`to`). Note that `value` may be zero."
      }
    },
    "kind": "dev",
    "methods": {
      "allowance(address,address)": {
        "details": "See {IERC20-allowance}."
      },
      "approve(address,uint256)": {
        "details": "See {IERC20-approve}. NOTE: If `amount` is the maximum `uint256`, the allowance is not updated on `transferFrom`. This is semantically equivalent to an infinite approval. Requirements: - `spender` cannot be the zero address."
      },
      "balanceOf(address)": {
        "details": "See {IERC20-balanceOf}."
      },
      "decimals()": {
        "details": "Returns the number of decimals used to get its user representation. For example, if `decimals` equals `2`, a balance of `505` tokens should be displayed to a user as `5.05` (`505 / 10 ** 2`). Tokens usually opt for a value of 18, imitating the relationship between Ether and Wei. This is the default value returned by this function, unless it's overridden. NOTE: This information is only used for _display_ purposes: it in no way affects any of the arithmetic of the contract, including {IERC20-balanceOf} and {IERC20-transfer}."
      },
      "decreaseAllowance(address,uint256)": {
        "details": "Atomically decreases the allowance granted to `spender` by the caller. This is an alternative to {approve} that can be used as a mitigation for problems described in {IERC20-approve}. Emits an {Approval} event indicating the updated allowance. Requirements: - `spender` cannot be the zero address. - `spender` must have allowance for the caller of at least `subtractedValue`."
      },
      "increaseAllowance(address,uint256)": {
        "details": "Atomically increases the allowance granted to `spender` by the caller. This is an alternative to {approve} that can be used as a mitigation for problems described in {IERC20-approve}. Emits an {Approval} event indicating the updated allowance. Requirements: - `spender` cannot be the zero address."
      },
      "name()": {
        "details": "Returns the name of the token."
      },
      "owner()": {
        "details": "Returns the address of the current owner."
      },
      "renounceOwnership()": {
        "details": "Leaves the contract without owner. It will not be possible to call `onlyOwner` functions. Can only be called by the current owner. NOTE: Renouncing ownership will leave the contract without an owner, thereby disabling any functionality that is only available to the owner."
      },
      "symbol()": {
        "details": "Returns the symbol of the token, usually a shorter version of the name."
      },
      "totalSupply()": {
        "details": "See {IERC20-totalSupply}."
      },
      "transfer(address,uint256)": {
        "details": "See {IERC20-transfer}. Requirements: - `to` cannot be the zero address. - the caller must have a balance of at least `amount`."
      },
      "transferFrom(address,address,uint256)": {
        "details": "See {IERC20-transferFrom}. Emits an {Approval} event indicating the updated allowance. This is not required by the EIP. See the note at the beginning of {ERC20}. NOTE: Does not update the allowance if the current allowance is the maximum `uint256`. Requirements: - `from` and `to` cannot be the zero address. - `from` must have a balance of at least `amount`. - the caller must have allowance for ``from``'s tokens of at least `amount`."
      },
      "transferOwnership(address)": {
        "details": "Transfers ownership of the contract to a new account (`newOwner`). Can only be called by the current owner."
      }
    },
    "version": 1
  },
  "userdoc": {
    "kind": "user",
    "methods": {},
    "version": 1
  }
}